{
  "contracts/zkSQL.sol": {
    "ZkSQL": {
      "abi": [
        {
          "inputs": [
            {
              "internalType": "address",
              "name": "insertVerifier_",
              "type": "address"
            },
            {
              "internalType": "address",
              "name": "updateVerifier_",
              "type": "address"
            },
            {
              "internalType": "address",
              "name": "deleteVerifier_",
              "type": "address"
            }
          ],
          "stateMutability": "nonpayable",
          "type": "constructor"
        },
        {
          "anonymous": false,
          "inputs": [
            {
              "indexed": false,
              "internalType": "address",
              "name": "issuer",
              "type": "address"
            },
            {
              "indexed": false,
              "internalType": "uint256",
              "name": "commitment",
              "type": "uint256"
            }
          ],
          "name": "RequestPosted",
          "type": "event"
        },
        {
          "anonymous": false,
          "inputs": [
            {
              "indexed": false,
              "internalType": "string",
              "name": "table",
              "type": "string"
            },
            {
              "indexed": false,
              "internalType": "uint256",
              "name": "commitment",
              "type": "uint256"
            }
          ],
          "name": "TableCreated",
          "type": "event"
        },
        {
          "anonymous": false,
          "inputs": [
            {
              "indexed": false,
              "internalType": "string",
              "name": "table",
              "type": "string"
            },
            {
              "indexed": false,
              "internalType": "uint256",
              "name": "commitment",
              "type": "uint256"
            }
          ],
          "name": "TableUpdated",
          "type": "event"
        },
        {
          "inputs": [
            {
              "internalType": "string",
              "name": "table",
              "type": "string"
            },
            {
              "internalType": "uint256",
              "name": "commitment",
              "type": "uint256"
            }
          ],
          "name": "createTable",
          "outputs": [],
          "stateMutability": "nonpayable",
          "type": "function"
        },
        {
          "inputs": [],
          "name": "deleteVerifier",
          "outputs": [
            {
              "internalType": "address",
              "name": "",
              "type": "address"
            }
          ],
          "stateMutability": "view",
          "type": "function"
        },
        {
          "inputs": [
            {
              "internalType": "enum ZkSQL.SqlOperation",
              "name": "opcode",
              "type": "uint8"
            },
            {
              "internalType": "uint256",
              "name": "argsCommitment",
              "type": "uint256"
            },
            {
              "internalType": "uint256",
              "name": "newCommitment",
              "type": "uint256"
            },
            {
              "internalType": "bytes",
              "name": "proof",
              "type": "bytes"
            }
          ],
          "name": "execRequest",
          "outputs": [
            {
              "internalType": "bool",
              "name": "",
              "type": "bool"
            }
          ],
          "stateMutability": "nonpayable",
          "type": "function"
        },
        {
          "inputs": [],
          "name": "insertVerifier",
          "outputs": [
            {
              "internalType": "address",
              "name": "",
              "type": "address"
            }
          ],
          "stateMutability": "view",
          "type": "function"
        },
        {
          "inputs": [
            {
              "internalType": "string",
              "name": "table",
              "type": "string"
            },
            {
              "internalType": "uint256",
              "name": "argsCommitment",
              "type": "uint256"
            }
          ],
          "name": "request",
          "outputs": [],
          "stateMutability": "nonpayable",
          "type": "function"
        },
        {
          "inputs": [
            {
              "internalType": "uint256",
              "name": "",
              "type": "uint256"
            }
          ],
          "name": "requestsCommitments",
          "outputs": [
            {
              "internalType": "string",
              "name": "",
              "type": "string"
            }
          ],
          "stateMutability": "view",
          "type": "function"
        },
        {
          "inputs": [
            {
              "internalType": "string",
              "name": "",
              "type": "string"
            }
          ],
          "name": "tableCommitments",
          "outputs": [
            {
              "internalType": "uint256",
              "name": "",
              "type": "uint256"
            }
          ],
          "stateMutability": "view",
          "type": "function"
        },
        {
          "inputs": [],
          "name": "updateVerifier",
          "outputs": [
            {
              "internalType": "address",
              "name": "",
              "type": "address"
            }
          ],
          "stateMutability": "view",
          "type": "function"
        }
      ],
      "evm": {
        "bytecode": {
          "linkReferences": {},
          "object": "60e06040523480156200001157600080fd5b50604051620015b9380380620015b983398181016040528101906200003791906200013f565b8273ffffffffffffffffffffffffffffffffffffffff1660808173ffffffffffffffffffffffffffffffffffffffff1660601b815250508173ffffffffffffffffffffffffffffffffffffffff1660a08173ffffffffffffffffffffffffffffffffffffffff1660601b815250508073ffffffffffffffffffffffffffffffffffffffff1660c08173ffffffffffffffffffffffffffffffffffffffff1660601b815250507f0db09577058dabc70c0743e4e7e1797c90b7d209a552cc3983dc4a7f0486e02860006040516200010d90620001bc565b90815260200160405180910390208190555050505062000255565b60008151905062000139816200023b565b92915050565b6000806000606084860312156200015557600080fd5b6000620001658682870162000128565b9350506020620001788682870162000128565b92505060406200018b8682870162000128565b9150509250925092565b6000620001a4600683620001d3565b9150620001b18262000212565b600682019050919050565b6000620001c98262000195565b9150819050919050565b600081905092915050565b6000620001eb82620001f2565b9050919050565b600073ffffffffffffffffffffffffffffffffffffffff82169050919050565b7f7461626c65310000000000000000000000000000000000000000000000000000600082015250565b6200024681620001de565b81146200025257600080fd5b50565b60805160601c60a05160601c60c05160601c611316620002a36000396000818161059b015261091601526000818161067f015261087601526000818161073601526107d501526113166000f3fe608060405234801561001057600080fd5b50600436106100885760003560e01c806398887caa1161005b57806398887caa14610127578063dc6ad19e14610145578063f861722d14610161578063fe3c04f41461019157610088565b8063093892be1461008d5780634123143b146100bd5780634403e2dc146100ed5780636543e2131461010b575b600080fd5b6100a760048036038101906100a29190610b57565b6101af565b6040516100b49190610ea9565b60405180910390f35b6100d760048036038101906100d29190610c67565b6104f9565b6040516100e49190610efb565b60405180910390f35b6100f5610599565b6040516101029190610e65565b60405180910390f35b61012560048036038101906101209190610c13565b6105bd565b005b61012f61067d565b60405161013c9190610e65565b60405180910390f35b61015f600480360381019061015a9190610c13565b6106a1565b005b61017b60048036038101906101769190610bd2565b610706565b6040516101889190610fad565b60405180910390f35b610199610734565b6040516101a69190610e65565b60405180910390f35b6000806101bb86610758565b905060006001600087815260200190815260200160002080546101dd90611155565b80601f016020809104026020016040519081016040528092919081815260200182805461020990611155565b80156102565780601f1061022b57610100808354040283529160200191610256565b820191906000526020600020905b81548152906001019060200180831161023957829003601f168201915b505050505090506000600367ffffffffffffffff8111156102a0577f4e487b7100000000000000000000000000000000000000000000000000000000600052604160045260246000fd5b6040519080825280602002602001820160405280156102ce5781602001602082028036833780820191505090505b509050858160008151811061030c577f4e487b7100000000000000000000000000000000000000000000000000000000600052603260045260246000fd5b6020026020010181815250506000826040516103289190610e4e565b90815260200160405180910390205481600181518110610371577f4e487b7100000000000000000000000000000000000000000000000000000000600052603260045260246000fd5b60200260200101818152505086816002815181106103b8577f4e487b7100000000000000000000000000000000000000000000000000000000600052603260045260246000fd5b6020026020010181815250508273ffffffffffffffffffffffffffffffffffffffff16631e8e1e1386836040518363ffffffff1660e01b81526004016103ff929190610ec4565b60206040518083038186803b15801561041757600080fd5b505afa15801561042b573d6000803e3d6000fd5b505050506040513d601f19601f8201168201806040525081019061044f9190610b2e565b61048e576040517f08c379a000000000000000000000000000000000000000000000000000000000815260040161048590610f8d565b60405180910390fd5b8560008360405161049f9190610e4e565b9081526020016040518091039020819055507fb3b3b1b935c13b8259ef760ae6538d44cc98c9c394d621d8807add6817a4636582876040516104e2929190610f1d565b60405180910390a160019350505050949350505050565b6001602052806000526040600020600091509050805461051890611155565b80601f016020809104026020016040519081016040528092919081815260200182805461054490611155565b80156105915780601f1061056657610100808354040283529160200191610591565b820191906000526020600020905b81548152906001019060200180831161057457829003601f168201915b505050505081565b7f000000000000000000000000000000000000000000000000000000000000000081565b600080836040516105ce9190610e4e565b9081526020016040518091039020541461061d576040517f08c379a000000000000000000000000000000000000000000000000000000000815260040161061490610f6d565b60405180910390fd5b8060008360405161062e9190610e4e565b9081526020016040518091039020819055507f0b71b7291a9fc3a0721b1959743945de91156f701b493bac77dcfaeba05cd8d38282604051610671929190610f1d565b60405180910390a15050565b7f000000000000000000000000000000000000000000000000000000000000000081565b816001600083815260200190815260200160002090805190602001906106c892919061097c565b507fe42038eda0238692da8d8c200345a40ed84f713f2b07bfdfe04eda8824caabb833826040516106fa929190610e80565b60405180910390a15050565b6000818051602081018201805184825260208301602085012081835280955050505050506000915090505481565b7f000000000000000000000000000000000000000000000000000000000000000081565b6000816002811115610793577f4e487b7100000000000000000000000000000000000000000000000000000000600052602160045260246000fd5b600060028111156107cd577f4e487b7100000000000000000000000000000000000000000000000000000000600052602160045260246000fd5b14156107fb577f00000000000000000000000000000000000000000000000000000000000000009050610977565b816002811115610834577f4e487b7100000000000000000000000000000000000000000000000000000000600052602160045260246000fd5b6001600281111561086e577f4e487b7100000000000000000000000000000000000000000000000000000000600052602160045260246000fd5b141561089c577f00000000000000000000000000000000000000000000000000000000000000009050610977565b8160028111156108d5577f4e487b7100000000000000000000000000000000000000000000000000000000600052602160045260246000fd5b60028081111561090e577f4e487b7100000000000000000000000000000000000000000000000000000000600052602160045260246000fd5b141561093c577f00000000000000000000000000000000000000000000000000000000000000009050610977565b6040517f08c379a000000000000000000000000000000000000000000000000000000000815260040161096e90610f4d565b60405180910390fd5b919050565b82805461098890611155565b90600052602060002090601f0160209004810192826109aa57600085556109f1565b82601f106109c357805160ff19168380011785556109f1565b828001600101855582156109f1579182015b828111156109f05782518255916020019190600101906109d5565b5b5090506109fe9190610a02565b5090565b5b80821115610a1b576000816000905550600101610a03565b5090565b6000610a32610a2d84610fed565b610fc8565b905082815260208101848484011115610a4a57600080fd5b610a55848285611113565b509392505050565b6000610a70610a6b8461101e565b610fc8565b905082815260208101848484011115610a8857600080fd5b610a93848285611113565b509392505050565b600081519050610aaa816112a2565b92915050565b600082601f830112610ac157600080fd5b8135610ad1848260208601610a1f565b91505092915050565b600081359050610ae9816112b9565b92915050565b600082601f830112610b0057600080fd5b8135610b10848260208601610a5d565b91505092915050565b600081359050610b28816112c9565b92915050565b600060208284031215610b4057600080fd5b6000610b4e84828501610a9b565b91505092915050565b60008060008060808587031215610b6d57600080fd5b6000610b7b87828801610ada565b9450506020610b8c87828801610b19565b9350506040610b9d87828801610b19565b925050606085013567ffffffffffffffff811115610bba57600080fd5b610bc687828801610ab0565b91505092959194509250565b600060208284031215610be457600080fd5b600082013567ffffffffffffffff811115610bfe57600080fd5b610c0a84828501610aef565b91505092915050565b60008060408385031215610c2657600080fd5b600083013567ffffffffffffffff811115610c4057600080fd5b610c4c85828601610aef565b9250506020610c5d85828601610b19565b9150509250929050565b600060208284031215610c7957600080fd5b6000610c8784828501610b19565b91505092915050565b6000610c9c8383610e30565b60208301905092915050565b610cb1816110cb565b82525050565b6000610cc28261105f565b610ccc818561108d565b9350610cd78361104f565b8060005b83811015610d08578151610cef8882610c90565b9750610cfa83611080565b925050600181019050610cdb565b5085935050505092915050565b610d1e816110dd565b82525050565b6000610d2f8261106a565b610d39818561109e565b9350610d49818560208601611122565b610d5281611216565b840191505092915050565b6000610d6882611075565b610d7281856110af565b9350610d82818560208601611122565b610d8b81611216565b840191505092915050565b6000610da182611075565b610dab81856110c0565b9350610dbb818560208601611122565b80840191505092915050565b6000610dd46011836110af565b9150610ddf82611227565b602082019050919050565b6000610df76014836110af565b9150610e0282611250565b602082019050919050565b6000610e1a6019836110af565b9150610e2582611279565b602082019050919050565b610e3981611109565b82525050565b610e4881611109565b82525050565b6000610e5a8284610d96565b915081905092915050565b6000602082019050610e7a6000830184610ca8565b92915050565b6000604082019050610e956000830185610ca8565b610ea26020830184610e3f565b9392505050565b6000602082019050610ebe6000830184610d15565b92915050565b60006040820190508181036000830152610ede8185610d24565b90508181036020830152610ef28184610cb7565b90509392505050565b60006020820190508181036000830152610f158184610d5d565b905092915050565b60006040820190508181036000830152610f378185610d5d565b9050610f466020830184610e3f565b9392505050565b60006020820190508181036000830152610f6681610dc7565b9050919050565b60006020820190508181036000830152610f8681610dea565b9050919050565b60006020820190508181036000830152610fa681610e0d565b9050919050565b6000602082019050610fc26000830184610e3f565b92915050565b6000610fd2610fe3565b9050610fde8282611187565b919050565b6000604051905090565b600067ffffffffffffffff821115611008576110076111e7565b5b61101182611216565b9050602081019050919050565b600067ffffffffffffffff821115611039576110386111e7565b5b61104282611216565b9050602081019050919050565b6000819050602082019050919050565b600081519050919050565b600081519050919050565b600081519050919050565b6000602082019050919050565b600082825260208201905092915050565b600082825260208201905092915050565b600082825260208201905092915050565b600081905092915050565b60006110d6826110e9565b9050919050565b60008115159050919050565b600073ffffffffffffffffffffffffffffffffffffffff82169050919050565b6000819050919050565b82818337600083830152505050565b60005b83811015611140578082015181840152602081019050611125565b8381111561114f576000848401525b50505050565b6000600282049050600182168061116d57607f821691505b60208210811415611181576111806111b8565b5b50919050565b61119082611216565b810181811067ffffffffffffffff821117156111af576111ae6111e7565b5b80604052505050565b7f4e487b7100000000000000000000000000000000000000000000000000000000600052602260045260246000fd5b7f4e487b7100000000000000000000000000000000000000000000000000000000600052604160045260246000fd5b6000601f19601f8301169050919050565b7f756e6b6e6f776e206f7065726174696f6e000000000000000000000000000000600082015250565b7f7461626c6520616c726561647920657869737473000000000000000000000000600082015250565b7f534e41524b20766572696669636174696f6e206661696c656400000000000000600082015250565b6112ab816110dd565b81146112b657600080fd5b50565b600381106112c657600080fd5b50565b6112d281611109565b81146112dd57600080fd5b5056fea2646970667358221220a4eee82bc789af213931805599c3b2b0515c25a17a8c140ea36a8d46c4d1be7964736f6c63430008040033",
          "opcodes": "PUSH1 0xE0 PUSH1 0x40 MSTORE CALLVALUE DUP1 ISZERO PUSH3 0x11 JUMPI PUSH1 0x0 DUP1 REVERT JUMPDEST POP PUSH1 0x40 MLOAD PUSH3 0x15B9 CODESIZE SUB DUP1 PUSH3 0x15B9 DUP4 CODECOPY DUP2 DUP2 ADD PUSH1 0x40 MSTORE DUP2 ADD SWAP1 PUSH3 0x37 SWAP2 SWAP1 PUSH3 0x13F JUMP JUMPDEST DUP3 PUSH20 0xFFFFFFFFFFFFFFFFFFFFFFFFFFFFFFFFFFFFFFFF AND PUSH1 0x80 DUP2 PUSH20 0xFFFFFFFFFFFFFFFFFFFFFFFFFFFFFFFFFFFFFFFF AND PUSH1 0x60 SHL DUP2 MSTORE POP POP DUP2 PUSH20 0xFFFFFFFFFFFFFFFFFFFFFFFFFFFFFFFFFFFFFFFF AND PUSH1 0xA0 DUP2 PUSH20 0xFFFFFFFFFFFFFFFFFFFFFFFFFFFFFFFFFFFFFFFF AND PUSH1 0x60 SHL DUP2 MSTORE POP POP DUP1 PUSH20 0xFFFFFFFFFFFFFFFFFFFFFFFFFFFFFFFFFFFFFFFF AND PUSH1 0xC0 DUP2 PUSH20 0xFFFFFFFFFFFFFFFFFFFFFFFFFFFFFFFFFFFFFFFF AND PUSH1 0x60 SHL DUP2 MSTORE POP POP PUSH32 0xDB09577058DABC70C0743E4E7E1797C90B7D209A552CC3983DC4A7F0486E028 PUSH1 0x0 PUSH1 0x40 MLOAD PUSH3 0x10D SWAP1 PUSH3 0x1BC JUMP JUMPDEST SWAP1 DUP2 MSTORE PUSH1 0x20 ADD PUSH1 0x40 MLOAD DUP1 SWAP2 SUB SWAP1 KECCAK256 DUP2 SWAP1 SSTORE POP POP POP POP PUSH3 0x255 JUMP JUMPDEST PUSH1 0x0 DUP2 MLOAD SWAP1 POP PUSH3 0x139 DUP2 PUSH3 0x23B JUMP JUMPDEST SWAP3 SWAP2 POP POP JUMP JUMPDEST PUSH1 0x0 DUP1 PUSH1 0x0 PUSH1 0x60 DUP5 DUP7 SUB SLT ISZERO PUSH3 0x155 JUMPI PUSH1 0x0 DUP1 REVERT JUMPDEST PUSH1 0x0 PUSH3 0x165 DUP7 DUP3 DUP8 ADD PUSH3 0x128 JUMP JUMPDEST SWAP4 POP POP PUSH1 0x20 PUSH3 0x178 DUP7 DUP3 DUP8 ADD PUSH3 0x128 JUMP JUMPDEST SWAP3 POP POP PUSH1 0x40 PUSH3 0x18B DUP7 DUP3 DUP8 ADD PUSH3 0x128 JUMP JUMPDEST SWAP2 POP POP SWAP3 POP SWAP3 POP SWAP3 JUMP JUMPDEST PUSH1 0x0 PUSH3 0x1A4 PUSH1 0x6 DUP4 PUSH3 0x1D3 JUMP JUMPDEST SWAP2 POP PUSH3 0x1B1 DUP3 PUSH3 0x212 JUMP JUMPDEST PUSH1 0x6 DUP3 ADD SWAP1 POP SWAP2 SWAP1 POP JUMP JUMPDEST PUSH1 0x0 PUSH3 0x1C9 DUP3 PUSH3 0x195 JUMP JUMPDEST SWAP2 POP DUP2 SWAP1 POP SWAP2 SWAP1 POP JUMP JUMPDEST PUSH1 0x0 DUP2 SWAP1 POP SWAP3 SWAP2 POP POP JUMP JUMPDEST PUSH1 0x0 PUSH3 0x1EB DUP3 PUSH3 0x1F2 JUMP JUMPDEST SWAP1 POP SWAP2 SWAP1 POP JUMP JUMPDEST PUSH1 0x0 PUSH20 0xFFFFFFFFFFFFFFFFFFFFFFFFFFFFFFFFFFFFFFFF DUP3 AND SWAP1 POP SWAP2 SWAP1 POP JUMP JUMPDEST PUSH32 0x7461626C65310000000000000000000000000000000000000000000000000000 PUSH1 0x0 DUP3 ADD MSTORE POP JUMP JUMPDEST PUSH3 0x246 DUP2 PUSH3 0x1DE JUMP JUMPDEST DUP2 EQ PUSH3 0x252 JUMPI PUSH1 0x0 DUP1 REVERT JUMPDEST POP JUMP JUMPDEST PUSH1 0x80 MLOAD PUSH1 0x60 SHR PUSH1 0xA0 MLOAD PUSH1 0x60 SHR PUSH1 0xC0 MLOAD PUSH1 0x60 SHR PUSH2 0x1316 PUSH3 0x2A3 PUSH1 0x0 CODECOPY PUSH1 0x0 DUP2 DUP2 PUSH2 0x59B ADD MSTORE PUSH2 0x916 ADD MSTORE PUSH1 0x0 DUP2 DUP2 PUSH2 0x67F ADD MSTORE PUSH2 0x876 ADD MSTORE PUSH1 0x0 DUP2 DUP2 PUSH2 0x736 ADD MSTORE PUSH2 0x7D5 ADD MSTORE PUSH2 0x1316 PUSH1 0x0 RETURN INVALID PUSH1 0x80 PUSH1 0x40 MSTORE CALLVALUE DUP1 ISZERO PUSH2 0x10 JUMPI PUSH1 0x0 DUP1 REVERT JUMPDEST POP PUSH1 0x4 CALLDATASIZE LT PUSH2 0x88 JUMPI PUSH1 0x0 CALLDATALOAD PUSH1 0xE0 SHR DUP1 PUSH4 0x98887CAA GT PUSH2 0x5B JUMPI DUP1 PUSH4 0x98887CAA EQ PUSH2 0x127 JUMPI DUP1 PUSH4 0xDC6AD19E EQ PUSH2 0x145 JUMPI DUP1 PUSH4 0xF861722D EQ PUSH2 0x161 JUMPI DUP1 PUSH4 0xFE3C04F4 EQ PUSH2 0x191 JUMPI PUSH2 0x88 JUMP JUMPDEST DUP1 PUSH4 0x93892BE EQ PUSH2 0x8D JUMPI DUP1 PUSH4 0x4123143B EQ PUSH2 0xBD JUMPI DUP1 PUSH4 0x4403E2DC EQ PUSH2 0xED JUMPI DUP1 PUSH4 0x6543E213 EQ PUSH2 0x10B JUMPI JUMPDEST PUSH1 0x0 DUP1 REVERT JUMPDEST PUSH2 0xA7 PUSH1 0x4 DUP1 CALLDATASIZE SUB DUP2 ADD SWAP1 PUSH2 0xA2 SWAP2 SWAP1 PUSH2 0xB57 JUMP JUMPDEST PUSH2 0x1AF JUMP JUMPDEST PUSH1 0x40 MLOAD PUSH2 0xB4 SWAP2 SWAP1 PUSH2 0xEA9 JUMP JUMPDEST PUSH1 0x40 MLOAD DUP1 SWAP2 SUB SWAP1 RETURN JUMPDEST PUSH2 0xD7 PUSH1 0x4 DUP1 CALLDATASIZE SUB DUP2 ADD SWAP1 PUSH2 0xD2 SWAP2 SWAP1 PUSH2 0xC67 JUMP JUMPDEST PUSH2 0x4F9 JUMP JUMPDEST PUSH1 0x40 MLOAD PUSH2 0xE4 SWAP2 SWAP1 PUSH2 0xEFB JUMP JUMPDEST PUSH1 0x40 MLOAD DUP1 SWAP2 SUB SWAP1 RETURN JUMPDEST PUSH2 0xF5 PUSH2 0x599 JUMP JUMPDEST PUSH1 0x40 MLOAD PUSH2 0x102 SWAP2 SWAP1 PUSH2 0xE65 JUMP JUMPDEST PUSH1 0x40 MLOAD DUP1 SWAP2 SUB SWAP1 RETURN JUMPDEST PUSH2 0x125 PUSH1 0x4 DUP1 CALLDATASIZE SUB DUP2 ADD SWAP1 PUSH2 0x120 SWAP2 SWAP1 PUSH2 0xC13 JUMP JUMPDEST PUSH2 0x5BD JUMP JUMPDEST STOP JUMPDEST PUSH2 0x12F PUSH2 0x67D JUMP JUMPDEST PUSH1 0x40 MLOAD PUSH2 0x13C SWAP2 SWAP1 PUSH2 0xE65 JUMP JUMPDEST PUSH1 0x40 MLOAD DUP1 SWAP2 SUB SWAP1 RETURN JUMPDEST PUSH2 0x15F PUSH1 0x4 DUP1 CALLDATASIZE SUB DUP2 ADD SWAP1 PUSH2 0x15A SWAP2 SWAP1 PUSH2 0xC13 JUMP JUMPDEST PUSH2 0x6A1 JUMP JUMPDEST STOP JUMPDEST PUSH2 0x17B PUSH1 0x4 DUP1 CALLDATASIZE SUB DUP2 ADD SWAP1 PUSH2 0x176 SWAP2 SWAP1 PUSH2 0xBD2 JUMP JUMPDEST PUSH2 0x706 JUMP JUMPDEST PUSH1 0x40 MLOAD PUSH2 0x188 SWAP2 SWAP1 PUSH2 0xFAD JUMP JUMPDEST PUSH1 0x40 MLOAD DUP1 SWAP2 SUB SWAP1 RETURN JUMPDEST PUSH2 0x199 PUSH2 0x734 JUMP JUMPDEST PUSH1 0x40 MLOAD PUSH2 0x1A6 SWAP2 SWAP1 PUSH2 0xE65 JUMP JUMPDEST PUSH1 0x40 MLOAD DUP1 SWAP2 SUB SWAP1 RETURN JUMPDEST PUSH1 0x0 DUP1 PUSH2 0x1BB DUP7 PUSH2 0x758 JUMP JUMPDEST SWAP1 POP PUSH1 0x0 PUSH1 0x1 PUSH1 0x0 DUP8 DUP2 MSTORE PUSH1 0x20 ADD SWAP1 DUP2 MSTORE PUSH1 0x20 ADD PUSH1 0x0 KECCAK256 DUP1 SLOAD PUSH2 0x1DD SWAP1 PUSH2 0x1155 JUMP JUMPDEST DUP1 PUSH1 0x1F ADD PUSH1 0x20 DUP1 SWAP2 DIV MUL PUSH1 0x20 ADD PUSH1 0x40 MLOAD SWAP1 DUP2 ADD PUSH1 0x40 MSTORE DUP1 SWAP3 SWAP2 SWAP1 DUP2 DUP2 MSTORE PUSH1 0x20 ADD DUP3 DUP1 SLOAD PUSH2 0x209 SWAP1 PUSH2 0x1155 JUMP JUMPDEST DUP1 ISZERO PUSH2 0x256 JUMPI DUP1 PUSH1 0x1F LT PUSH2 0x22B JUMPI PUSH2 0x100 DUP1 DUP4 SLOAD DIV MUL DUP4 MSTORE SWAP2 PUSH1 0x20 ADD SWAP2 PUSH2 0x256 JUMP JUMPDEST DUP3 ADD SWAP2 SWAP1 PUSH1 0x0 MSTORE PUSH1 0x20 PUSH1 0x0 KECCAK256 SWAP1 JUMPDEST DUP2 SLOAD DUP2 MSTORE SWAP1 PUSH1 0x1 ADD SWAP1 PUSH1 0x20 ADD DUP1 DUP4 GT PUSH2 0x239 JUMPI DUP3 SWAP1 SUB PUSH1 0x1F AND DUP3 ADD SWAP2 JUMPDEST POP POP POP POP POP SWAP1 POP PUSH1 0x0 PUSH1 0x3 PUSH8 0xFFFFFFFFFFFFFFFF DUP2 GT ISZERO PUSH2 0x2A0 JUMPI PUSH32 0x4E487B7100000000000000000000000000000000000000000000000000000000 PUSH1 0x0 MSTORE PUSH1 0x41 PUSH1 0x4 MSTORE PUSH1 0x24 PUSH1 0x0 REVERT JUMPDEST PUSH1 0x40 MLOAD SWAP1 DUP1 DUP3 MSTORE DUP1 PUSH1 0x20 MUL PUSH1 0x20 ADD DUP3 ADD PUSH1 0x40 MSTORE DUP1 ISZERO PUSH2 0x2CE JUMPI DUP2 PUSH1 0x20 ADD PUSH1 0x20 DUP3 MUL DUP1 CALLDATASIZE DUP4 CALLDATACOPY DUP1 DUP3 ADD SWAP2 POP POP SWAP1 POP JUMPDEST POP SWAP1 POP DUP6 DUP2 PUSH1 0x0 DUP2 MLOAD DUP2 LT PUSH2 0x30C JUMPI PUSH32 0x4E487B7100000000000000000000000000000000000000000000000000000000 PUSH1 0x0 MSTORE PUSH1 0x32 PUSH1 0x4 MSTORE PUSH1 0x24 PUSH1 0x0 REVERT JUMPDEST PUSH1 0x20 MUL PUSH1 0x20 ADD ADD DUP2 DUP2 MSTORE POP POP PUSH1 0x0 DUP3 PUSH1 0x40 MLOAD PUSH2 0x328 SWAP2 SWAP1 PUSH2 0xE4E JUMP JUMPDEST SWAP1 DUP2 MSTORE PUSH1 0x20 ADD PUSH1 0x40 MLOAD DUP1 SWAP2 SUB SWAP1 KECCAK256 SLOAD DUP2 PUSH1 0x1 DUP2 MLOAD DUP2 LT PUSH2 0x371 JUMPI PUSH32 0x4E487B7100000000000000000000000000000000000000000000000000000000 PUSH1 0x0 MSTORE PUSH1 0x32 PUSH1 0x4 MSTORE PUSH1 0x24 PUSH1 0x0 REVERT JUMPDEST PUSH1 0x20 MUL PUSH1 0x20 ADD ADD DUP2 DUP2 MSTORE POP POP DUP7 DUP2 PUSH1 0x2 DUP2 MLOAD DUP2 LT PUSH2 0x3B8 JUMPI PUSH32 0x4E487B7100000000000000000000000000000000000000000000000000000000 PUSH1 0x0 MSTORE PUSH1 0x32 PUSH1 0x4 MSTORE PUSH1 0x24 PUSH1 0x0 REVERT JUMPDEST PUSH1 0x20 MUL PUSH1 0x20 ADD ADD DUP2 DUP2 MSTORE POP POP DUP3 PUSH20 0xFFFFFFFFFFFFFFFFFFFFFFFFFFFFFFFFFFFFFFFF AND PUSH4 0x1E8E1E13 DUP7 DUP4 PUSH1 0x40 MLOAD DUP4 PUSH4 0xFFFFFFFF AND PUSH1 0xE0 SHL DUP2 MSTORE PUSH1 0x4 ADD PUSH2 0x3FF SWAP3 SWAP2 SWAP1 PUSH2 0xEC4 JUMP JUMPDEST PUSH1 0x20 PUSH1 0x40 MLOAD DUP1 DUP4 SUB DUP2 DUP7 DUP1 EXTCODESIZE ISZERO DUP1 ISZERO PUSH2 0x417 JUMPI PUSH1 0x0 DUP1 REVERT JUMPDEST POP GAS STATICCALL ISZERO DUP1 ISZERO PUSH2 0x42B JUMPI RETURNDATASIZE PUSH1 0x0 DUP1 RETURNDATACOPY RETURNDATASIZE PUSH1 0x0 REVERT JUMPDEST POP POP POP POP PUSH1 0x40 MLOAD RETURNDATASIZE PUSH1 0x1F NOT PUSH1 0x1F DUP3 ADD AND DUP3 ADD DUP1 PUSH1 0x40 MSTORE POP DUP2 ADD SWAP1 PUSH2 0x44F SWAP2 SWAP1 PUSH2 0xB2E JUMP JUMPDEST PUSH2 0x48E JUMPI PUSH1 0x40 MLOAD PUSH32 0x8C379A000000000000000000000000000000000000000000000000000000000 DUP2 MSTORE PUSH1 0x4 ADD PUSH2 0x485 SWAP1 PUSH2 0xF8D JUMP JUMPDEST PUSH1 0x40 MLOAD DUP1 SWAP2 SUB SWAP1 REVERT JUMPDEST DUP6 PUSH1 0x0 DUP4 PUSH1 0x40 MLOAD PUSH2 0x49F SWAP2 SWAP1 PUSH2 0xE4E JUMP JUMPDEST SWAP1 DUP2 MSTORE PUSH1 0x20 ADD PUSH1 0x40 MLOAD DUP1 SWAP2 SUB SWAP1 KECCAK256 DUP2 SWAP1 SSTORE POP PUSH32 0xB3B3B1B935C13B8259EF760AE6538D44CC98C9C394D621D8807ADD6817A46365 DUP3 DUP8 PUSH1 0x40 MLOAD PUSH2 0x4E2 SWAP3 SWAP2 SWAP1 PUSH2 0xF1D JUMP JUMPDEST PUSH1 0x40 MLOAD DUP1 SWAP2 SUB SWAP1 LOG1 PUSH1 0x1 SWAP4 POP POP POP POP SWAP5 SWAP4 POP POP POP POP JUMP JUMPDEST PUSH1 0x1 PUSH1 0x20 MSTORE DUP1 PUSH1 0x0 MSTORE PUSH1 0x40 PUSH1 0x0 KECCAK256 PUSH1 0x0 SWAP2 POP SWAP1 POP DUP1 SLOAD PUSH2 0x518 SWAP1 PUSH2 0x1155 JUMP JUMPDEST DUP1 PUSH1 0x1F ADD PUSH1 0x20 DUP1 SWAP2 DIV MUL PUSH1 0x20 ADD PUSH1 0x40 MLOAD SWAP1 DUP2 ADD PUSH1 0x40 MSTORE DUP1 SWAP3 SWAP2 SWAP1 DUP2 DUP2 MSTORE PUSH1 0x20 ADD DUP3 DUP1 SLOAD PUSH2 0x544 SWAP1 PUSH2 0x1155 JUMP JUMPDEST DUP1 ISZERO PUSH2 0x591 JUMPI DUP1 PUSH1 0x1F LT PUSH2 0x566 JUMPI PUSH2 0x100 DUP1 DUP4 SLOAD DIV MUL DUP4 MSTORE SWAP2 PUSH1 0x20 ADD SWAP2 PUSH2 0x591 JUMP JUMPDEST DUP3 ADD SWAP2 SWAP1 PUSH1 0x0 MSTORE PUSH1 0x20 PUSH1 0x0 KECCAK256 SWAP1 JUMPDEST DUP2 SLOAD DUP2 MSTORE SWAP1 PUSH1 0x1 ADD SWAP1 PUSH1 0x20 ADD DUP1 DUP4 GT PUSH2 0x574 JUMPI DUP3 SWAP1 SUB PUSH1 0x1F AND DUP3 ADD SWAP2 JUMPDEST POP POP POP POP POP DUP2 JUMP JUMPDEST PUSH32 0x0 DUP2 JUMP JUMPDEST PUSH1 0x0 DUP1 DUP4 PUSH1 0x40 MLOAD PUSH2 0x5CE SWAP2 SWAP1 PUSH2 0xE4E JUMP JUMPDEST SWAP1 DUP2 MSTORE PUSH1 0x20 ADD PUSH1 0x40 MLOAD DUP1 SWAP2 SUB SWAP1 KECCAK256 SLOAD EQ PUSH2 0x61D JUMPI PUSH1 0x40 MLOAD PUSH32 0x8C379A000000000000000000000000000000000000000000000000000000000 DUP2 MSTORE PUSH1 0x4 ADD PUSH2 0x614 SWAP1 PUSH2 0xF6D JUMP JUMPDEST PUSH1 0x40 MLOAD DUP1 SWAP2 SUB SWAP1 REVERT JUMPDEST DUP1 PUSH1 0x0 DUP4 PUSH1 0x40 MLOAD PUSH2 0x62E SWAP2 SWAP1 PUSH2 0xE4E JUMP JUMPDEST SWAP1 DUP2 MSTORE PUSH1 0x20 ADD PUSH1 0x40 MLOAD DUP1 SWAP2 SUB SWAP1 KECCAK256 DUP2 SWAP1 SSTORE POP PUSH32 0xB71B7291A9FC3A0721B1959743945DE91156F701B493BAC77DCFAEBA05CD8D3 DUP3 DUP3 PUSH1 0x40 MLOAD PUSH2 0x671 SWAP3 SWAP2 SWAP1 PUSH2 0xF1D JUMP JUMPDEST PUSH1 0x40 MLOAD DUP1 SWAP2 SUB SWAP1 LOG1 POP POP JUMP JUMPDEST PUSH32 0x0 DUP2 JUMP JUMPDEST DUP2 PUSH1 0x1 PUSH1 0x0 DUP4 DUP2 MSTORE PUSH1 0x20 ADD SWAP1 DUP2 MSTORE PUSH1 0x20 ADD PUSH1 0x0 KECCAK256 SWAP1 DUP1 MLOAD SWAP1 PUSH1 0x20 ADD SWAP1 PUSH2 0x6C8 SWAP3 SWAP2 SWAP1 PUSH2 0x97C JUMP JUMPDEST POP PUSH32 0xE42038EDA0238692DA8D8C200345A40ED84F713F2B07BFDFE04EDA8824CAABB8 CALLER DUP3 PUSH1 0x40 MLOAD PUSH2 0x6FA SWAP3 SWAP2 SWAP1 PUSH2 0xE80 JUMP JUMPDEST PUSH1 0x40 MLOAD DUP1 SWAP2 SUB SWAP1 LOG1 POP POP JUMP JUMPDEST PUSH1 0x0 DUP2 DUP1 MLOAD PUSH1 0x20 DUP2 ADD DUP3 ADD DUP1 MLOAD DUP5 DUP3 MSTORE PUSH1 0x20 DUP4 ADD PUSH1 0x20 DUP6 ADD KECCAK256 DUP2 DUP4 MSTORE DUP1 SWAP6 POP POP POP POP POP POP PUSH1 0x0 SWAP2 POP SWAP1 POP SLOAD DUP2 JUMP JUMPDEST PUSH32 0x0 DUP2 JUMP JUMPDEST PUSH1 0x0 DUP2 PUSH1 0x2 DUP2 GT ISZERO PUSH2 0x793 JUMPI PUSH32 0x4E487B7100000000000000000000000000000000000000000000000000000000 PUSH1 0x0 MSTORE PUSH1 0x21 PUSH1 0x4 MSTORE PUSH1 0x24 PUSH1 0x0 REVERT JUMPDEST PUSH1 0x0 PUSH1 0x2 DUP2 GT ISZERO PUSH2 0x7CD JUMPI PUSH32 0x4E487B7100000000000000000000000000000000000000000000000000000000 PUSH1 0x0 MSTORE PUSH1 0x21 PUSH1 0x4 MSTORE PUSH1 0x24 PUSH1 0x0 REVERT JUMPDEST EQ ISZERO PUSH2 0x7FB JUMPI PUSH32 0x0 SWAP1 POP PUSH2 0x977 JUMP JUMPDEST DUP2 PUSH1 0x2 DUP2 GT ISZERO PUSH2 0x834 JUMPI PUSH32 0x4E487B7100000000000000000000000000000000000000000000000000000000 PUSH1 0x0 MSTORE PUSH1 0x21 PUSH1 0x4 MSTORE PUSH1 0x24 PUSH1 0x0 REVERT JUMPDEST PUSH1 0x1 PUSH1 0x2 DUP2 GT ISZERO PUSH2 0x86E JUMPI PUSH32 0x4E487B7100000000000000000000000000000000000000000000000000000000 PUSH1 0x0 MSTORE PUSH1 0x21 PUSH1 0x4 MSTORE PUSH1 0x24 PUSH1 0x0 REVERT JUMPDEST EQ ISZERO PUSH2 0x89C JUMPI PUSH32 0x0 SWAP1 POP PUSH2 0x977 JUMP JUMPDEST DUP2 PUSH1 0x2 DUP2 GT ISZERO PUSH2 0x8D5 JUMPI PUSH32 0x4E487B7100000000000000000000000000000000000000000000000000000000 PUSH1 0x0 MSTORE PUSH1 0x21 PUSH1 0x4 MSTORE PUSH1 0x24 PUSH1 0x0 REVERT JUMPDEST PUSH1 0x2 DUP1 DUP2 GT ISZERO PUSH2 0x90E JUMPI PUSH32 0x4E487B7100000000000000000000000000000000000000000000000000000000 PUSH1 0x0 MSTORE PUSH1 0x21 PUSH1 0x4 MSTORE PUSH1 0x24 PUSH1 0x0 REVERT JUMPDEST EQ ISZERO PUSH2 0x93C JUMPI PUSH32 0x0 SWAP1 POP PUSH2 0x977 JUMP JUMPDEST PUSH1 0x40 MLOAD PUSH32 0x8C379A000000000000000000000000000000000000000000000000000000000 DUP2 MSTORE PUSH1 0x4 ADD PUSH2 0x96E SWAP1 PUSH2 0xF4D JUMP JUMPDEST PUSH1 0x40 MLOAD DUP1 SWAP2 SUB SWAP1 REVERT JUMPDEST SWAP2 SWAP1 POP JUMP JUMPDEST DUP3 DUP1 SLOAD PUSH2 0x988 SWAP1 PUSH2 0x1155 JUMP JUMPDEST SWAP1 PUSH1 0x0 MSTORE PUSH1 0x20 PUSH1 0x0 KECCAK256 SWAP1 PUSH1 0x1F ADD PUSH1 0x20 SWAP1 DIV DUP2 ADD SWAP3 DUP3 PUSH2 0x9AA JUMPI PUSH1 0x0 DUP6 SSTORE PUSH2 0x9F1 JUMP JUMPDEST DUP3 PUSH1 0x1F LT PUSH2 0x9C3 JUMPI DUP1 MLOAD PUSH1 0xFF NOT AND DUP4 DUP1 ADD OR DUP6 SSTORE PUSH2 0x9F1 JUMP JUMPDEST DUP3 DUP1 ADD PUSH1 0x1 ADD DUP6 SSTORE DUP3 ISZERO PUSH2 0x9F1 JUMPI SWAP2 DUP3 ADD JUMPDEST DUP3 DUP2 GT ISZERO PUSH2 0x9F0 JUMPI DUP3 MLOAD DUP3 SSTORE SWAP2 PUSH1 0x20 ADD SWAP2 SWAP1 PUSH1 0x1 ADD SWAP1 PUSH2 0x9D5 JUMP JUMPDEST JUMPDEST POP SWAP1 POP PUSH2 0x9FE SWAP2 SWAP1 PUSH2 0xA02 JUMP JUMPDEST POP SWAP1 JUMP JUMPDEST JUMPDEST DUP1 DUP3 GT ISZERO PUSH2 0xA1B JUMPI PUSH1 0x0 DUP2 PUSH1 0x0 SWAP1 SSTORE POP PUSH1 0x1 ADD PUSH2 0xA03 JUMP JUMPDEST POP SWAP1 JUMP JUMPDEST PUSH1 0x0 PUSH2 0xA32 PUSH2 0xA2D DUP5 PUSH2 0xFED JUMP JUMPDEST PUSH2 0xFC8 JUMP JUMPDEST SWAP1 POP DUP3 DUP2 MSTORE PUSH1 0x20 DUP2 ADD DUP5 DUP5 DUP5 ADD GT ISZERO PUSH2 0xA4A JUMPI PUSH1 0x0 DUP1 REVERT JUMPDEST PUSH2 0xA55 DUP5 DUP3 DUP6 PUSH2 0x1113 JUMP JUMPDEST POP SWAP4 SWAP3 POP POP POP JUMP JUMPDEST PUSH1 0x0 PUSH2 0xA70 PUSH2 0xA6B DUP5 PUSH2 0x101E JUMP JUMPDEST PUSH2 0xFC8 JUMP JUMPDEST SWAP1 POP DUP3 DUP2 MSTORE PUSH1 0x20 DUP2 ADD DUP5 DUP5 DUP5 ADD GT ISZERO PUSH2 0xA88 JUMPI PUSH1 0x0 DUP1 REVERT JUMPDEST PUSH2 0xA93 DUP5 DUP3 DUP6 PUSH2 0x1113 JUMP JUMPDEST POP SWAP4 SWAP3 POP POP POP JUMP JUMPDEST PUSH1 0x0 DUP2 MLOAD SWAP1 POP PUSH2 0xAAA DUP2 PUSH2 0x12A2 JUMP JUMPDEST SWAP3 SWAP2 POP POP JUMP JUMPDEST PUSH1 0x0 DUP3 PUSH1 0x1F DUP4 ADD SLT PUSH2 0xAC1 JUMPI PUSH1 0x0 DUP1 REVERT JUMPDEST DUP2 CALLDATALOAD PUSH2 0xAD1 DUP5 DUP3 PUSH1 0x20 DUP7 ADD PUSH2 0xA1F JUMP JUMPDEST SWAP2 POP POP SWAP3 SWAP2 POP POP JUMP JUMPDEST PUSH1 0x0 DUP2 CALLDATALOAD SWAP1 POP PUSH2 0xAE9 DUP2 PUSH2 0x12B9 JUMP JUMPDEST SWAP3 SWAP2 POP POP JUMP JUMPDEST PUSH1 0x0 DUP3 PUSH1 0x1F DUP4 ADD SLT PUSH2 0xB00 JUMPI PUSH1 0x0 DUP1 REVERT JUMPDEST DUP2 CALLDATALOAD PUSH2 0xB10 DUP5 DUP3 PUSH1 0x20 DUP7 ADD PUSH2 0xA5D JUMP JUMPDEST SWAP2 POP POP SWAP3 SWAP2 POP POP JUMP JUMPDEST PUSH1 0x0 DUP2 CALLDATALOAD SWAP1 POP PUSH2 0xB28 DUP2 PUSH2 0x12C9 JUMP JUMPDEST SWAP3 SWAP2 POP POP JUMP JUMPDEST PUSH1 0x0 PUSH1 0x20 DUP3 DUP5 SUB SLT ISZERO PUSH2 0xB40 JUMPI PUSH1 0x0 DUP1 REVERT JUMPDEST PUSH1 0x0 PUSH2 0xB4E DUP5 DUP3 DUP6 ADD PUSH2 0xA9B JUMP JUMPDEST SWAP2 POP POP SWAP3 SWAP2 POP POP JUMP JUMPDEST PUSH1 0x0 DUP1 PUSH1 0x0 DUP1 PUSH1 0x80 DUP6 DUP8 SUB SLT ISZERO PUSH2 0xB6D JUMPI PUSH1 0x0 DUP1 REVERT JUMPDEST PUSH1 0x0 PUSH2 0xB7B DUP8 DUP3 DUP9 ADD PUSH2 0xADA JUMP JUMPDEST SWAP5 POP POP PUSH1 0x20 PUSH2 0xB8C DUP8 DUP3 DUP9 ADD PUSH2 0xB19 JUMP JUMPDEST SWAP4 POP POP PUSH1 0x40 PUSH2 0xB9D DUP8 DUP3 DUP9 ADD PUSH2 0xB19 JUMP JUMPDEST SWAP3 POP POP PUSH1 0x60 DUP6 ADD CALLDATALOAD PUSH8 0xFFFFFFFFFFFFFFFF DUP2 GT ISZERO PUSH2 0xBBA JUMPI PUSH1 0x0 DUP1 REVERT JUMPDEST PUSH2 0xBC6 DUP8 DUP3 DUP9 ADD PUSH2 0xAB0 JUMP JUMPDEST SWAP2 POP POP SWAP3 SWAP6 SWAP2 SWAP5 POP SWAP3 POP JUMP JUMPDEST PUSH1 0x0 PUSH1 0x20 DUP3 DUP5 SUB SLT ISZERO PUSH2 0xBE4 JUMPI PUSH1 0x0 DUP1 REVERT JUMPDEST PUSH1 0x0 DUP3 ADD CALLDATALOAD PUSH8 0xFFFFFFFFFFFFFFFF DUP2 GT ISZERO PUSH2 0xBFE JUMPI PUSH1 0x0 DUP1 REVERT JUMPDEST PUSH2 0xC0A DUP5 DUP3 DUP6 ADD PUSH2 0xAEF JUMP JUMPDEST SWAP2 POP POP SWAP3 SWAP2 POP POP JUMP JUMPDEST PUSH1 0x0 DUP1 PUSH1 0x40 DUP4 DUP6 SUB SLT ISZERO PUSH2 0xC26 JUMPI PUSH1 0x0 DUP1 REVERT JUMPDEST PUSH1 0x0 DUP4 ADD CALLDATALOAD PUSH8 0xFFFFFFFFFFFFFFFF DUP2 GT ISZERO PUSH2 0xC40 JUMPI PUSH1 0x0 DUP1 REVERT JUMPDEST PUSH2 0xC4C DUP6 DUP3 DUP7 ADD PUSH2 0xAEF JUMP JUMPDEST SWAP3 POP POP PUSH1 0x20 PUSH2 0xC5D DUP6 DUP3 DUP7 ADD PUSH2 0xB19 JUMP JUMPDEST SWAP2 POP POP SWAP3 POP SWAP3 SWAP1 POP JUMP JUMPDEST PUSH1 0x0 PUSH1 0x20 DUP3 DUP5 SUB SLT ISZERO PUSH2 0xC79 JUMPI PUSH1 0x0 DUP1 REVERT JUMPDEST PUSH1 0x0 PUSH2 0xC87 DUP5 DUP3 DUP6 ADD PUSH2 0xB19 JUMP JUMPDEST SWAP2 POP POP SWAP3 SWAP2 POP POP JUMP JUMPDEST PUSH1 0x0 PUSH2 0xC9C DUP4 DUP4 PUSH2 0xE30 JUMP JUMPDEST PUSH1 0x20 DUP4 ADD SWAP1 POP SWAP3 SWAP2 POP POP JUMP JUMPDEST PUSH2 0xCB1 DUP2 PUSH2 0x10CB JUMP JUMPDEST DUP3 MSTORE POP POP JUMP JUMPDEST PUSH1 0x0 PUSH2 0xCC2 DUP3 PUSH2 0x105F JUMP JUMPDEST PUSH2 0xCCC DUP2 DUP6 PUSH2 0x108D JUMP JUMPDEST SWAP4 POP PUSH2 0xCD7 DUP4 PUSH2 0x104F JUMP JUMPDEST DUP1 PUSH1 0x0 JUMPDEST DUP4 DUP2 LT ISZERO PUSH2 0xD08 JUMPI DUP2 MLOAD PUSH2 0xCEF DUP9 DUP3 PUSH2 0xC90 JUMP JUMPDEST SWAP8 POP PUSH2 0xCFA DUP4 PUSH2 0x1080 JUMP JUMPDEST SWAP3 POP POP PUSH1 0x1 DUP2 ADD SWAP1 POP PUSH2 0xCDB JUMP JUMPDEST POP DUP6 SWAP4 POP POP POP POP SWAP3 SWAP2 POP POP JUMP JUMPDEST PUSH2 0xD1E DUP2 PUSH2 0x10DD JUMP JUMPDEST DUP3 MSTORE POP POP JUMP JUMPDEST PUSH1 0x0 PUSH2 0xD2F DUP3 PUSH2 0x106A JUMP JUMPDEST PUSH2 0xD39 DUP2 DUP6 PUSH2 0x109E JUMP JUMPDEST SWAP4 POP PUSH2 0xD49 DUP2 DUP6 PUSH1 0x20 DUP7 ADD PUSH2 0x1122 JUMP JUMPDEST PUSH2 0xD52 DUP2 PUSH2 0x1216 JUMP JUMPDEST DUP5 ADD SWAP2 POP POP SWAP3 SWAP2 POP POP JUMP JUMPDEST PUSH1 0x0 PUSH2 0xD68 DUP3 PUSH2 0x1075 JUMP JUMPDEST PUSH2 0xD72 DUP2 DUP6 PUSH2 0x10AF JUMP JUMPDEST SWAP4 POP PUSH2 0xD82 DUP2 DUP6 PUSH1 0x20 DUP7 ADD PUSH2 0x1122 JUMP JUMPDEST PUSH2 0xD8B DUP2 PUSH2 0x1216 JUMP JUMPDEST DUP5 ADD SWAP2 POP POP SWAP3 SWAP2 POP POP JUMP JUMPDEST PUSH1 0x0 PUSH2 0xDA1 DUP3 PUSH2 0x1075 JUMP JUMPDEST PUSH2 0xDAB DUP2 DUP6 PUSH2 0x10C0 JUMP JUMPDEST SWAP4 POP PUSH2 0xDBB DUP2 DUP6 PUSH1 0x20 DUP7 ADD PUSH2 0x1122 JUMP JUMPDEST DUP1 DUP5 ADD SWAP2 POP POP SWAP3 SWAP2 POP POP JUMP JUMPDEST PUSH1 0x0 PUSH2 0xDD4 PUSH1 0x11 DUP4 PUSH2 0x10AF JUMP JUMPDEST SWAP2 POP PUSH2 0xDDF DUP3 PUSH2 0x1227 JUMP JUMPDEST PUSH1 0x20 DUP3 ADD SWAP1 POP SWAP2 SWAP1 POP JUMP JUMPDEST PUSH1 0x0 PUSH2 0xDF7 PUSH1 0x14 DUP4 PUSH2 0x10AF JUMP JUMPDEST SWAP2 POP PUSH2 0xE02 DUP3 PUSH2 0x1250 JUMP JUMPDEST PUSH1 0x20 DUP3 ADD SWAP1 POP SWAP2 SWAP1 POP JUMP JUMPDEST PUSH1 0x0 PUSH2 0xE1A PUSH1 0x19 DUP4 PUSH2 0x10AF JUMP JUMPDEST SWAP2 POP PUSH2 0xE25 DUP3 PUSH2 0x1279 JUMP JUMPDEST PUSH1 0x20 DUP3 ADD SWAP1 POP SWAP2 SWAP1 POP JUMP JUMPDEST PUSH2 0xE39 DUP2 PUSH2 0x1109 JUMP JUMPDEST DUP3 MSTORE POP POP JUMP JUMPDEST PUSH2 0xE48 DUP2 PUSH2 0x1109 JUMP JUMPDEST DUP3 MSTORE POP POP JUMP JUMPDEST PUSH1 0x0 PUSH2 0xE5A DUP3 DUP5 PUSH2 0xD96 JUMP JUMPDEST SWAP2 POP DUP2 SWAP1 POP SWAP3 SWAP2 POP POP JUMP JUMPDEST PUSH1 0x0 PUSH1 0x20 DUP3 ADD SWAP1 POP PUSH2 0xE7A PUSH1 0x0 DUP4 ADD DUP5 PUSH2 0xCA8 JUMP JUMPDEST SWAP3 SWAP2 POP POP JUMP JUMPDEST PUSH1 0x0 PUSH1 0x40 DUP3 ADD SWAP1 POP PUSH2 0xE95 PUSH1 0x0 DUP4 ADD DUP6 PUSH2 0xCA8 JUMP JUMPDEST PUSH2 0xEA2 PUSH1 0x20 DUP4 ADD DUP5 PUSH2 0xE3F JUMP JUMPDEST SWAP4 SWAP3 POP POP POP JUMP JUMPDEST PUSH1 0x0 PUSH1 0x20 DUP3 ADD SWAP1 POP PUSH2 0xEBE PUSH1 0x0 DUP4 ADD DUP5 PUSH2 0xD15 JUMP JUMPDEST SWAP3 SWAP2 POP POP JUMP JUMPDEST PUSH1 0x0 PUSH1 0x40 DUP3 ADD SWAP1 POP DUP2 DUP2 SUB PUSH1 0x0 DUP4 ADD MSTORE PUSH2 0xEDE DUP2 DUP6 PUSH2 0xD24 JUMP JUMPDEST SWAP1 POP DUP2 DUP2 SUB PUSH1 0x20 DUP4 ADD MSTORE PUSH2 0xEF2 DUP2 DUP5 PUSH2 0xCB7 JUMP JUMPDEST SWAP1 POP SWAP4 SWAP3 POP POP POP JUMP JUMPDEST PUSH1 0x0 PUSH1 0x20 DUP3 ADD SWAP1 POP DUP2 DUP2 SUB PUSH1 0x0 DUP4 ADD MSTORE PUSH2 0xF15 DUP2 DUP5 PUSH2 0xD5D JUMP JUMPDEST SWAP1 POP SWAP3 SWAP2 POP POP JUMP JUMPDEST PUSH1 0x0 PUSH1 0x40 DUP3 ADD SWAP1 POP DUP2 DUP2 SUB PUSH1 0x0 DUP4 ADD MSTORE PUSH2 0xF37 DUP2 DUP6 PUSH2 0xD5D JUMP JUMPDEST SWAP1 POP PUSH2 0xF46 PUSH1 0x20 DUP4 ADD DUP5 PUSH2 0xE3F JUMP JUMPDEST SWAP4 SWAP3 POP POP POP JUMP JUMPDEST PUSH1 0x0 PUSH1 0x20 DUP3 ADD SWAP1 POP DUP2 DUP2 SUB PUSH1 0x0 DUP4 ADD MSTORE PUSH2 0xF66 DUP2 PUSH2 0xDC7 JUMP JUMPDEST SWAP1 POP SWAP2 SWAP1 POP JUMP JUMPDEST PUSH1 0x0 PUSH1 0x20 DUP3 ADD SWAP1 POP DUP2 DUP2 SUB PUSH1 0x0 DUP4 ADD MSTORE PUSH2 0xF86 DUP2 PUSH2 0xDEA JUMP JUMPDEST SWAP1 POP SWAP2 SWAP1 POP JUMP JUMPDEST PUSH1 0x0 PUSH1 0x20 DUP3 ADD SWAP1 POP DUP2 DUP2 SUB PUSH1 0x0 DUP4 ADD MSTORE PUSH2 0xFA6 DUP2 PUSH2 0xE0D JUMP JUMPDEST SWAP1 POP SWAP2 SWAP1 POP JUMP JUMPDEST PUSH1 0x0 PUSH1 0x20 DUP3 ADD SWAP1 POP PUSH2 0xFC2 PUSH1 0x0 DUP4 ADD DUP5 PUSH2 0xE3F JUMP JUMPDEST SWAP3 SWAP2 POP POP JUMP JUMPDEST PUSH1 0x0 PUSH2 0xFD2 PUSH2 0xFE3 JUMP JUMPDEST SWAP1 POP PUSH2 0xFDE DUP3 DUP3 PUSH2 0x1187 JUMP JUMPDEST SWAP2 SWAP1 POP JUMP JUMPDEST PUSH1 0x0 PUSH1 0x40 MLOAD SWAP1 POP SWAP1 JUMP JUMPDEST PUSH1 0x0 PUSH8 0xFFFFFFFFFFFFFFFF DUP3 GT ISZERO PUSH2 0x1008 JUMPI PUSH2 0x1007 PUSH2 0x11E7 JUMP JUMPDEST JUMPDEST PUSH2 0x1011 DUP3 PUSH2 0x1216 JUMP JUMPDEST SWAP1 POP PUSH1 0x20 DUP2 ADD SWAP1 POP SWAP2 SWAP1 POP JUMP JUMPDEST PUSH1 0x0 PUSH8 0xFFFFFFFFFFFFFFFF DUP3 GT ISZERO PUSH2 0x1039 JUMPI PUSH2 0x1038 PUSH2 0x11E7 JUMP JUMPDEST JUMPDEST PUSH2 0x1042 DUP3 PUSH2 0x1216 JUMP JUMPDEST SWAP1 POP PUSH1 0x20 DUP2 ADD SWAP1 POP SWAP2 SWAP1 POP JUMP JUMPDEST PUSH1 0x0 DUP2 SWAP1 POP PUSH1 0x20 DUP3 ADD SWAP1 POP SWAP2 SWAP1 POP JUMP JUMPDEST PUSH1 0x0 DUP2 MLOAD SWAP1 POP SWAP2 SWAP1 POP JUMP JUMPDEST PUSH1 0x0 DUP2 MLOAD SWAP1 POP SWAP2 SWAP1 POP JUMP JUMPDEST PUSH1 0x0 DUP2 MLOAD SWAP1 POP SWAP2 SWAP1 POP JUMP JUMPDEST PUSH1 0x0 PUSH1 0x20 DUP3 ADD SWAP1 POP SWAP2 SWAP1 POP JUMP JUMPDEST PUSH1 0x0 DUP3 DUP3 MSTORE PUSH1 0x20 DUP3 ADD SWAP1 POP SWAP3 SWAP2 POP POP JUMP JUMPDEST PUSH1 0x0 DUP3 DUP3 MSTORE PUSH1 0x20 DUP3 ADD SWAP1 POP SWAP3 SWAP2 POP POP JUMP JUMPDEST PUSH1 0x0 DUP3 DUP3 MSTORE PUSH1 0x20 DUP3 ADD SWAP1 POP SWAP3 SWAP2 POP POP JUMP JUMPDEST PUSH1 0x0 DUP2 SWAP1 POP SWAP3 SWAP2 POP POP JUMP JUMPDEST PUSH1 0x0 PUSH2 0x10D6 DUP3 PUSH2 0x10E9 JUMP JUMPDEST SWAP1 POP SWAP2 SWAP1 POP JUMP JUMPDEST PUSH1 0x0 DUP2 ISZERO ISZERO SWAP1 POP SWAP2 SWAP1 POP JUMP JUMPDEST PUSH1 0x0 PUSH20 0xFFFFFFFFFFFFFFFFFFFFFFFFFFFFFFFFFFFFFFFF DUP3 AND SWAP1 POP SWAP2 SWAP1 POP JUMP JUMPDEST PUSH1 0x0 DUP2 SWAP1 POP SWAP2 SWAP1 POP JUMP JUMPDEST DUP3 DUP2 DUP4 CALLDATACOPY PUSH1 0x0 DUP4 DUP4 ADD MSTORE POP POP POP JUMP JUMPDEST PUSH1 0x0 JUMPDEST DUP4 DUP2 LT ISZERO PUSH2 0x1140 JUMPI DUP1 DUP3 ADD MLOAD DUP2 DUP5 ADD MSTORE PUSH1 0x20 DUP2 ADD SWAP1 POP PUSH2 0x1125 JUMP JUMPDEST DUP4 DUP2 GT ISZERO PUSH2 0x114F JUMPI PUSH1 0x0 DUP5 DUP5 ADD MSTORE JUMPDEST POP POP POP POP JUMP JUMPDEST PUSH1 0x0 PUSH1 0x2 DUP3 DIV SWAP1 POP PUSH1 0x1 DUP3 AND DUP1 PUSH2 0x116D JUMPI PUSH1 0x7F DUP3 AND SWAP2 POP JUMPDEST PUSH1 0x20 DUP3 LT DUP2 EQ ISZERO PUSH2 0x1181 JUMPI PUSH2 0x1180 PUSH2 0x11B8 JUMP JUMPDEST JUMPDEST POP SWAP2 SWAP1 POP JUMP JUMPDEST PUSH2 0x1190 DUP3 PUSH2 0x1216 JUMP JUMPDEST DUP2 ADD DUP2 DUP2 LT PUSH8 0xFFFFFFFFFFFFFFFF DUP3 GT OR ISZERO PUSH2 0x11AF JUMPI PUSH2 0x11AE PUSH2 0x11E7 JUMP JUMPDEST JUMPDEST DUP1 PUSH1 0x40 MSTORE POP POP POP JUMP JUMPDEST PUSH32 0x4E487B7100000000000000000000000000000000000000000000000000000000 PUSH1 0x0 MSTORE PUSH1 0x22 PUSH1 0x4 MSTORE PUSH1 0x24 PUSH1 0x0 REVERT JUMPDEST PUSH32 0x4E487B7100000000000000000000000000000000000000000000000000000000 PUSH1 0x0 MSTORE PUSH1 0x41 PUSH1 0x4 MSTORE PUSH1 0x24 PUSH1 0x0 REVERT JUMPDEST PUSH1 0x0 PUSH1 0x1F NOT PUSH1 0x1F DUP4 ADD AND SWAP1 POP SWAP2 SWAP1 POP JUMP JUMPDEST PUSH32 0x756E6B6E6F776E206F7065726174696F6E000000000000000000000000000000 PUSH1 0x0 DUP3 ADD MSTORE POP JUMP JUMPDEST PUSH32 0x7461626C6520616C726561647920657869737473000000000000000000000000 PUSH1 0x0 DUP3 ADD MSTORE POP JUMP JUMPDEST PUSH32 0x534E41524B20766572696669636174696F6E206661696C656400000000000000 PUSH1 0x0 DUP3 ADD MSTORE POP JUMP JUMPDEST PUSH2 0x12AB DUP2 PUSH2 0x10DD JUMP JUMPDEST DUP2 EQ PUSH2 0x12B6 JUMPI PUSH1 0x0 DUP1 REVERT JUMPDEST POP JUMP JUMPDEST PUSH1 0x3 DUP2 LT PUSH2 0x12C6 JUMPI PUSH1 0x0 DUP1 REVERT JUMPDEST POP JUMP JUMPDEST PUSH2 0x12D2 DUP2 PUSH2 0x1109 JUMP JUMPDEST DUP2 EQ PUSH2 0x12DD JUMPI PUSH1 0x0 DUP1 REVERT JUMPDEST POP JUMP INVALID LOG2 PUSH5 0x6970667358 0x22 SLT KECCAK256 LOG4 0xEE 0xE8 0x2B 0xC7 DUP10 0xAF 0x21 CODECOPY BALANCE DUP1 SSTORE SWAP10 0xC3 0xB2 0xB0 MLOAD 0x5C 0x25 LOG1 PUSH27 0x8C140EA36A8D46C4D1BE7964736F6C634300080400330000000000 "
        },
        "methodIdentifiers": {
          "createTable(string,uint256)": "6543e213",
          "deleteVerifier()": "4403e2dc",
          "execRequest(uint8,uint256,uint256,bytes)": "093892be",
          "insertVerifier()": "fe3c04f4",
          "request(string,uint256)": "dc6ad19e",
          "requestsCommitments(uint256)": "4123143b",
          "tableCommitments(string)": "f861722d",
          "updateVerifier()": "98887caa"
        }
      }
    }
  }
}