{
  "_format": "hh-sol-artifact-1",
  "contractName": "PlonkVerifier",
  "sourceName": "contracts/selectVerifier.sol",
  "abi": [
    {
      "inputs": [
        {
          "internalType": "bytes",
          "name": "proof",
          "type": "bytes"
        },
        {
          "internalType": "uint256[]",
          "name": "pubSignals",
          "type": "uint256[]"
        }
      ],
      "name": "verifyProof",
      "outputs": [
        {
          "internalType": "bool",
          "name": "",
          "type": "bool"
        }
      ],
      "stateMutability": "view",
      "type": "function"
    }
  ],
  "bytecode": "0x60806040523480156200001157600080fd5b506198c080620000226000396000f3fe608060405234801561001057600080fd5b506004361061002b5760003560e01c80631e8e1e1314610030575b600080fd5b61004a600480360381019061004591906196c5565b610060565b6040516100579190619740565b60405180910390f35b6000619547565b600080600184846000805b821561009c5782840591508482028603905084955080945082820284039050829350809250610072565b60018411156100aa57600080fd5b60008612156100b95788860195505b85965050505050505092915050565b60405181602084028301815160208301925060005b82841015610120578185527f30644e72e131a029b85045b68181585d2833e84879b9709143e1f593f00000018451830991506020850194506020840193506100dd565b61014a7f30644e72e131a029b85045b68181585d2833e84879b9709143e1f593f000000183610067565b91506020850394506020840393508592505b828411156101c6577f30644e72e131a029b85045b68181585d2833e84879b9709143e1f593f00000018551830990507f30644e72e131a029b85045b68181585d2833e84879b9709143e1f593f000000184518309915080845260208503945060208403935061015c565b81845250505050505050565b7f30644e72e131a029b85045b68181585d2833e84879b9709143e1f593f00000018110610203576000805260206000f35b50565b61032081511461021a576000805260206000f35b6102286102608201516101d2565b6102366102808201516101d2565b6102446102a08201516101d2565b6102526102c08201516101d2565b6102606102e08201516101d2565b61026e6103008201516101d2565b61027c6103208201516101d2565b50565b6000806020850151610d608501526040850151610d808501526060850151610da08501526080850151610dc085015260a0850151610de085015260c0850151610e0085015260e0850151610e20850152610100850151610e40850152610120850151610e60850152610140850151610e80850152610160850151610ea0850152610180850151610ec08501526101a0850151610ee08501526101c0850151610f008501526101e0850151610f20850152610200850151610f40850152610220850151610f60850152610240850151610f80850152610260850151610fa0850152610280850151610fc08501526102a0850151610fe08501526102c08501516110008501526102e08501516110208501526103008501516110408501526103208501516110608501526103408501516110808501526103608501516110a08501526103808501516110c08501526103a08501516110e08501526103c08501516111008501526103e08501516111208501526104008501516111408501526104208501516111608501526104408501516111808501526104608501516111a08501526104808501516111c08501526104a08501516111e08501526104c08501516112008501526104e08501516112208501526105008501516112408501526105208501516112608501526105408501516112808501526105608501516112a08501526105808501516112c08501526105a08501516112e08501526105c08501516113008501526105e08501516113208501526106008501516113408501526106208501516113608501526106408501516113808501526106608501516113a08501526106808501516113c08501526106a08501516113e08501526106c08501516114008501526106e08501516114208501526107008501516114408501526107208501516114608501526107408501516114808501526107608501516114a08501526107808501516114c08501526107a08501516114e08501526107c08501516115008501526107e08501516115208501526108008501516115408501526108208501516115608501526108408501516115808501526108608501516115a08501526108808501516115c08501526108a08501516115e08501526108c08501516116008501526108e08501516116208501526109008501516116408501526109208501516116608501526109408501516116808501526109608501516116a08501526109808501516116c08501526109a08501516116e08501526109c08501516117008501526109e0850151611720850152610a00850151611740850152610a20850151611760850152610a40850151611780850152610a608501516117a0850152610a808501516117c0850152610aa08501516117e0850152610ac08501516118008501526020830151611820850152602080018301516118408501526040602001830151611860850152606060200183015161188085015260806020018301516118a085015260a06020018301516118c08501527f30644e72e131a029b85045b68181585d2833e84879b9709143e1f593f0000001610b80610d608601200690508060208501527f30644e72e131a029b85045b68181585d2833e84879b9709143e1f593f00000016020808601200660408501527f30644e72e131a029b85045b68181585d2833e84879b9709143e1f593f0000001604060e08501200660008501527f30644e72e131a029b85045b68181585d2833e84879b9709143e1f593f000000160c06101208501200691508160608501527f30644e72e131a029b85045b68181585d2833e84879b9709143e1f593f000000182820960a08501527f30644e72e131a029b85045b68181585d2833e84879b9709143e1f593f000000182830991507f30644e72e131a029b85045b68181585d2833e84879b9709143e1f593f000000182830991507f30644e72e131a029b85045b68181585d2833e84879b9709143e1f593f000000182830991507f30644e72e131a029b85045b68181585d2833e84879b9709143e1f593f000000182830991507f30644e72e131a029b85045b68181585d2833e84879b9709143e1f593f000000182830991507f30644e72e131a029b85045b68181585d2833e84879b9709143e1f593f000000182830991507f30644e72e131a029b85045b68181585d2833e84879b9709143e1f593f000000182830991507f30644e72e131a029b85045b68181585d2833e84879b9709143e1f593f000000182830991507f30644e72e131a029b85045b68181585d2833e84879b9709143e1f593f000000182830991507f30644e72e131a029b85045b68181585d2833e84879b9709143e1f593f000000182830991507f30644e72e131a029b85045b68181585d2833e84879b9709143e1f593f000000182830991507f30644e72e131a029b85045b68181585d2833e84879b9709143e1f593f000000182830991507f30644e72e131a029b85045b68181585d2833e84879b9709143e1f593f000000182830991508160808501527f30644e72e131a029b85045b68181585d2833e84879b9709143e1f593f000000180600184030106915081610260850152816102808501527f30644e72e131a029b85045b68181585d2833e84879b9709143e1f593f000000160e0610260850120068060c08601527f30644e72e131a029b85045b68181585d2833e84879b9709143e1f593f000000181820992508260e08601527f30644e72e131a029b85045b68181585d2833e84879b9709143e1f593f00000018184099250826101008601527f30644e72e131a029b85045b68181585d2833e84879b9709143e1f593f00000018184099250826101208601527f30644e72e131a029b85045b68181585d2833e84879b9709143e1f593f00000018184099250826101408601527f30644e72e131a029b85045b68181585d2833e84879b9709143e1f593f00000018184099250826101608601527f30644e72e131a029b85045b68181585d2833e84879b9709143e1f593f000000160806101e086012006610180860152505050505050565b60017f30644e72e131a029b85045b68181585d2833e84879b9709143e1f593f0000001807f30644e72e131a029b85045b68181585d2833e84879b9709143e1f593f0000001836060860151030106612000096102a08301527f30644e72e131a029b85045b68181585d2833e84879b9709143e1f593f00000017e6fab49b869ae62001deac878b2667bd31bf3e28e3a2d764aa49b8d9bbdd310820990507f30644e72e131a029b85045b68181585d2833e84879b9709143e1f593f0000001807f30644e72e131a029b85045b68181585d2833e84879b9709143e1f593f0000001836060860151030106612000096102c08301527f30644e72e131a029b85045b68181585d2833e84879b9709143e1f593f00000017e6fab49b869ae62001deac878b2667bd31bf3e28e3a2d764aa49b8d9bbdd310820990507f30644e72e131a029b85045b68181585d2833e84879b9709143e1f593f0000001807f30644e72e131a029b85045b68181585d2833e84879b9709143e1f593f0000001836060860151030106612000096102e08301527f30644e72e131a029b85045b68181585d2833e84879b9709143e1f593f00000017e6fab49b869ae62001deac878b2667bd31bf3e28e3a2d764aa49b8d9bbdd310820990507f30644e72e131a029b85045b68181585d2833e84879b9709143e1f593f0000001807f30644e72e131a029b85045b68181585d2833e84879b9709143e1f593f0000001836060860151030106612000096103008301527f30644e72e131a029b85045b68181585d2833e84879b9709143e1f593f00000017e6fab49b869ae62001deac878b2667bd31bf3e28e3a2d764aa49b8d9bbdd310820990507f30644e72e131a029b85045b68181585d2833e84879b9709143e1f593f0000001807f30644e72e131a029b85045b68181585d2833e84879b9709143e1f593f0000001836060860151030106612000096103208301527f30644e72e131a029b85045b68181585d2833e84879b9709143e1f593f00000017e6fab49b869ae62001deac878b2667bd31bf3e28e3a2d764aa49b8d9bbdd310820990507f30644e72e131a029b85045b68181585d2833e84879b9709143e1f593f0000001807f30644e72e131a029b85045b68181585d2833e84879b9709143e1f593f0000001836060860151030106612000096103408301527f30644e72e131a029b85045b68181585d2833e84879b9709143e1f593f00000017e6fab49b869ae62001deac878b2667bd31bf3e28e3a2d764aa49b8d9bbdd310820990507f30644e72e131a029b85045b68181585d2833e84879b9709143e1f593f0000001807f30644e72e131a029b85045b68181585d2833e84879b9709143e1f593f0000001836060860151030106612000096103608301527f30644e72e131a029b85045b68181585d2833e84879b9709143e1f593f00000017e6fab49b869ae62001deac878b2667bd31bf3e28e3a2d764aa49b8d9bbdd310820990507f30644e72e131a029b85045b68181585d2833e84879b9709143e1f593f0000001807f30644e72e131a029b85045b68181585d2833e84879b9709143e1f593f0000001836060860151030106612000096103808301527f30644e72e131a029b85045b68181585d2833e84879b9709143e1f593f00000017e6fab49b869ae62001deac878b2667bd31bf3e28e3a2d764aa49b8d9bbdd310820990507f30644e72e131a029b85045b68181585d2833e84879b9709143e1f593f0000001807f30644e72e131a029b85045b68181585d2833e84879b9709143e1f593f0000001836060860151030106612000096103a08301527f30644e72e131a029b85045b68181585d2833e84879b9709143e1f593f00000017e6fab49b869ae62001deac878b2667bd31bf3e28e3a2d764aa49b8d9bbdd310820990507f30644e72e131a029b85045b68181585d2833e84879b9709143e1f593f0000001807f30644e72e131a029b85045b68181585d2833e84879b9709143e1f593f0000001836060860151030106612000096103c08301527f30644e72e131a029b85045b68181585d2833e84879b9709143e1f593f00000017e6fab49b869ae62001deac878b2667bd31bf3e28e3a2d764aa49b8d9bbdd310820990507f30644e72e131a029b85045b68181585d2833e84879b9709143e1f593f0000001807f30644e72e131a029b85045b68181585d2833e84879b9709143e1f593f0000001836060860151030106612000096103e08301527f30644e72e131a029b85045b68181585d2833e84879b9709143e1f593f00000017e6fab49b869ae62001deac878b2667bd31bf3e28e3a2d764aa49b8d9bbdd310820990507f30644e72e131a029b85045b68181585d2833e84879b9709143e1f593f0000001807f30644e72e131a029b85045b68181585d2833e84879b9709143e1f593f0000001836060860151030106612000096104008301527f30644e72e131a029b85045b68181585d2833e84879b9709143e1f593f00000017e6fab49b869ae62001deac878b2667bd31bf3e28e3a2d764aa49b8d9bbdd310820990507f30644e72e131a029b85045b68181585d2833e84879b9709143e1f593f0000001807f30644e72e131a029b85045b68181585d2833e84879b9709143e1f593f0000001836060860151030106612000096104208301527f30644e72e131a029b85045b68181585d2833e84879b9709143e1f593f00000017e6fab49b869ae62001deac878b2667bd31bf3e28e3a2d764aa49b8d9bbdd310820990507f30644e72e131a029b85045b68181585d2833e84879b9709143e1f593f0000001807f30644e72e131a029b85045b68181585d2833e84879b9709143e1f593f0000001836060860151030106612000096104408301527f30644e72e131a029b85045b68181585d2833e84879b9709143e1f593f00000017e6fab49b869ae62001deac878b2667bd31bf3e28e3a2d764aa49b8d9bbdd310820990507f30644e72e131a029b85045b68181585d2833e84879b9709143e1f593f0000001807f30644e72e131a029b85045b68181585d2833e84879b9709143e1f593f0000001836060860151030106612000096104608301527f30644e72e131a029b85045b68181585d2833e84879b9709143e1f593f00000017e6fab49b869ae62001deac878b2667bd31bf3e28e3a2d764aa49b8d9bbdd310820990507f30644e72e131a029b85045b68181585d2833e84879b9709143e1f593f0000001807f30644e72e131a029b85045b68181585d2833e84879b9709143e1f593f0000001836060860151030106612000096104808301527f30644e72e131a029b85045b68181585d2833e84879b9709143e1f593f00000017e6fab49b869ae62001deac878b2667bd31bf3e28e3a2d764aa49b8d9bbdd310820990507f30644e72e131a029b85045b68181585d2833e84879b9709143e1f593f0000001807f30644e72e131a029b85045b68181585d2833e84879b9709143e1f593f0000001836060860151030106612000096104a08301527f30644e72e131a029b85045b68181585d2833e84879b9709143e1f593f00000017e6fab49b869ae62001deac878b2667bd31bf3e28e3a2d764aa49b8d9bbdd310820990507f30644e72e131a029b85045b68181585d2833e84879b9709143e1f593f0000001807f30644e72e131a029b85045b68181585d2833e84879b9709143e1f593f0000001836060860151030106612000096104c08301527f30644e72e131a029b85045b68181585d2833e84879b9709143e1f593f00000017e6fab49b869ae62001deac878b2667bd31bf3e28e3a2d764aa49b8d9bbdd310820990507f30644e72e131a029b85045b68181585d2833e84879b9709143e1f593f0000001807f30644e72e131a029b85045b68181585d2833e84879b9709143e1f593f0000001836060860151030106612000096104e08301527f30644e72e131a029b85045b68181585d2833e84879b9709143e1f593f00000017e6fab49b869ae62001deac878b2667bd31bf3e28e3a2d764aa49b8d9bbdd310820990507f30644e72e131a029b85045b68181585d2833e84879b9709143e1f593f0000001807f30644e72e131a029b85045b68181585d2833e84879b9709143e1f593f0000001836060860151030106612000096105008301527f30644e72e131a029b85045b68181585d2833e84879b9709143e1f593f00000017e6fab49b869ae62001deac878b2667bd31bf3e28e3a2d764aa49b8d9bbdd310820990507f30644e72e131a029b85045b68181585d2833e84879b9709143e1f593f0000001807f30644e72e131a029b85045b68181585d2833e84879b9709143e1f593f0000001836060860151030106612000096105208301527f30644e72e131a029b85045b68181585d2833e84879b9709143e1f593f00000017e6fab49b869ae62001deac878b2667bd31bf3e28e3a2d764aa49b8d9bbdd310820990507f30644e72e131a029b85045b68181585d2833e84879b9709143e1f593f0000001807f30644e72e131a029b85045b68181585d2833e84879b9709143e1f593f0000001836060860151030106612000096105408301527f30644e72e131a029b85045b68181585d2833e84879b9709143e1f593f00000017e6fab49b869ae62001deac878b2667bd31bf3e28e3a2d764aa49b8d9bbdd310820990507f30644e72e131a029b85045b68181585d2833e84879b9709143e1f593f0000001807f30644e72e131a029b85045b68181585d2833e84879b9709143e1f593f0000001836060860151030106612000096105608301527f30644e72e131a029b85045b68181585d2833e84879b9709143e1f593f00000017e6fab49b869ae62001deac878b2667bd31bf3e28e3a2d764aa49b8d9bbdd310820990507f30644e72e131a029b85045b68181585d2833e84879b9709143e1f593f0000001807f30644e72e131a029b85045b68181585d2833e84879b9709143e1f593f0000001836060860151030106612000096105808301527f30644e72e131a029b85045b68181585d2833e84879b9709143e1f593f00000017e6fab49b869ae62001deac878b2667bd31bf3e28e3a2d764aa49b8d9bbdd310820990507f30644e72e131a029b85045b68181585d2833e84879b9709143e1f593f0000001807f30644e72e131a029b85045b68181585d2833e84879b9709143e1f593f0000001836060860151030106612000096105a08301527f30644e72e131a029b85045b68181585d2833e84879b9709143e1f593f00000017e6fab49b869ae62001deac878b2667bd31bf3e28e3a2d764aa49b8d9bbdd310820990507f30644e72e131a029b85045b68181585d2833e84879b9709143e1f593f0000001807f30644e72e131a029b85045b68181585d2833e84879b9709143e1f593f0000001836060860151030106612000096105c08301527f30644e72e131a029b85045b68181585d2833e84879b9709143e1f593f00000017e6fab49b869ae62001deac878b2667bd31bf3e28e3a2d764aa49b8d9bbdd310820990507f30644e72e131a029b85045b68181585d2833e84879b9709143e1f593f0000001807f30644e72e131a029b85045b68181585d2833e84879b9709143e1f593f0000001836060860151030106612000096105e08301527f30644e72e131a029b85045b68181585d2833e84879b9709143e1f593f00000017e6fab49b869ae62001deac878b2667bd31bf3e28e3a2d764aa49b8d9bbdd310820990507f30644e72e131a029b85045b68181585d2833e84879b9709143e1f593f0000001807f30644e72e131a029b85045b68181585d2833e84879b9709143e1f593f0000001836060860151030106612000096106008301527f30644e72e131a029b85045b68181585d2833e84879b9709143e1f593f00000017e6fab49b869ae62001deac878b2667bd31bf3e28e3a2d764aa49b8d9bbdd310820990507f30644e72e131a029b85045b68181585d2833e84879b9709143e1f593f0000001807f30644e72e131a029b85045b68181585d2833e84879b9709143e1f593f0000001836060860151030106612000096106208301527f30644e72e131a029b85045b68181585d2833e84879b9709143e1f593f00000017e6fab49b869ae62001deac878b2667bd31bf3e28e3a2d764aa49b8d9bbdd310820990507f30644e72e131a029b85045b68181585d2833e84879b9709143e1f593f0000001807f30644e72e131a029b85045b68181585d2833e84879b9709143e1f593f0000001836060860151030106612000096106408301527f30644e72e131a029b85045b68181585d2833e84879b9709143e1f593f00000017e6fab49b869ae62001deac878b2667bd31bf3e28e3a2d764aa49b8d9bbdd310820990507f30644e72e131a029b85045b68181585d2833e84879b9709143e1f593f0000001807f30644e72e131a029b85045b68181585d2833e84879b9709143e1f593f0000001836060860151030106612000096106608301527f30644e72e131a029b85045b68181585d2833e84879b9709143e1f593f00000017e6fab49b869ae62001deac878b2667bd31bf3e28e3a2d764aa49b8d9bbdd310820990507f30644e72e131a029b85045b68181585d2833e84879b9709143e1f593f0000001807f30644e72e131a029b85045b68181585d2833e84879b9709143e1f593f0000001836060860151030106612000096106808301527f30644e72e131a029b85045b68181585d2833e84879b9709143e1f593f00000017e6fab49b869ae62001deac878b2667bd31bf3e28e3a2d764aa49b8d9bbdd310820990507f30644e72e131a029b85045b68181585d2833e84879b9709143e1f593f0000001807f30644e72e131a029b85045b68181585d2833e84879b9709143e1f593f0000001836060860151030106612000096106a08301527f30644e72e131a029b85045b68181585d2833e84879b9709143e1f593f00000017e6fab49b869ae62001deac878b2667bd31bf3e28e3a2d764aa49b8d9bbdd310820990507f30644e72e131a029b85045b68181585d2833e84879b9709143e1f593f0000001807f30644e72e131a029b85045b68181585d2833e84879b9709143e1f593f0000001836060860151030106612000096106c08301527f30644e72e131a029b85045b68181585d2833e84879b9709143e1f593f00000017e6fab49b869ae62001deac878b2667bd31bf3e28e3a2d764aa49b8d9bbdd310820990507f30644e72e131a029b85045b68181585d2833e84879b9709143e1f593f0000001807f30644e72e131a029b85045b68181585d2833e84879b9709143e1f593f0000001836060860151030106612000096106e08301527f30644e72e131a029b85045b68181585d2833e84879b9709143e1f593f00000017e6fab49b869ae62001deac878b2667bd31bf3e28e3a2d764aa49b8d9bbdd310820990507f30644e72e131a029b85045b68181585d2833e84879b9709143e1f593f0000001807f30644e72e131a029b85045b68181585d2833e84879b9709143e1f593f0000001836060860151030106612000096107008301527f30644e72e131a029b85045b68181585d2833e84879b9709143e1f593f00000017e6fab49b869ae62001deac878b2667bd31bf3e28e3a2d764aa49b8d9bbdd310820990507f30644e72e131a029b85045b68181585d2833e84879b9709143e1f593f0000001807f30644e72e131a029b85045b68181585d2833e84879b9709143e1f593f0000001836060860151030106612000096107208301527f30644e72e131a029b85045b68181585d2833e84879b9709143e1f593f00000017e6fab49b869ae62001deac878b2667bd31bf3e28e3a2d764aa49b8d9bbdd310820990507f30644e72e131a029b85045b68181585d2833e84879b9709143e1f593f0000001807f30644e72e131a029b85045b68181585d2833e84879b9709143e1f593f0000001836060860151030106612000096107408301527f30644e72e131a029b85045b68181585d2833e84879b9709143e1f593f00000017e6fab49b869ae62001deac878b2667bd31bf3e28e3a2d764aa49b8d9bbdd310820990507f30644e72e131a029b85045b68181585d2833e84879b9709143e1f593f0000001807f30644e72e131a029b85045b68181585d2833e84879b9709143e1f593f0000001836060860151030106612000096107608301527f30644e72e131a029b85045b68181585d2833e84879b9709143e1f593f00000017e6fab49b869ae62001deac878b2667bd31bf3e28e3a2d764aa49b8d9bbdd310820990507f30644e72e131a029b85045b68181585d2833e84879b9709143e1f593f0000001807f30644e72e131a029b85045b68181585d2833e84879b9709143e1f593f0000001836060860151030106612000096107808301527f30644e72e131a029b85045b68181585d2833e84879b9709143e1f593f00000017e6fab49b869ae62001deac878b2667bd31bf3e28e3a2d764aa49b8d9bbdd310820990507f30644e72e131a029b85045b68181585d2833e84879b9709143e1f593f0000001807f30644e72e131a029b85045b68181585d2833e84879b9709143e1f593f0000001836060860151030106612000096107a08301527f30644e72e131a029b85045b68181585d2833e84879b9709143e1f593f00000017e6fab49b869ae62001deac878b2667bd31bf3e28e3a2d764aa49b8d9bbdd310820990507f30644e72e131a029b85045b68181585d2833e84879b9709143e1f593f0000001807f30644e72e131a029b85045b68181585d2833e84879b9709143e1f593f0000001836060860151030106612000096107c08301527f30644e72e131a029b85045b68181585d2833e84879b9709143e1f593f00000017e6fab49b869ae62001deac878b2667bd31bf3e28e3a2d764aa49b8d9bbdd310820990507f30644e72e131a029b85045b68181585d2833e84879b9709143e1f593f0000001807f30644e72e131a029b85045b68181585d2833e84879b9709143e1f593f0000001836060860151030106612000096107e08301527f30644e72e131a029b85045b68181585d2833e84879b9709143e1f593f00000017e6fab49b869ae62001deac878b2667bd31bf3e28e3a2d764aa49b8d9bbdd310820990507f30644e72e131a029b85045b68181585d2833e84879b9709143e1f593f0000001807f30644e72e131a029b85045b68181585d2833e84879b9709143e1f593f0000001836060860151030106612000096108008301527f30644e72e131a029b85045b68181585d2833e84879b9709143e1f593f00000017e6fab49b869ae62001deac878b2667bd31bf3e28e3a2d764aa49b8d9bbdd310820990507f30644e72e131a029b85045b68181585d2833e84879b9709143e1f593f0000001807f30644e72e131a029b85045b68181585d2833e84879b9709143e1f593f0000001836060860151030106612000096108208301527f30644e72e131a029b85045b68181585d2833e84879b9709143e1f593f00000017e6fab49b869ae62001deac878b2667bd31bf3e28e3a2d764aa49b8d9bbdd310820990507f30644e72e131a029b85045b68181585d2833e84879b9709143e1f593f0000001807f30644e72e131a029b85045b68181585d2833e84879b9709143e1f593f0000001836060860151030106612000096108408301527f30644e72e131a029b85045b68181585d2833e84879b9709143e1f593f00000017e6fab49b869ae62001deac878b2667bd31bf3e28e3a2d764aa49b8d9bbdd310820990507f30644e72e131a029b85045b68181585d2833e84879b9709143e1f593f0000001807f30644e72e131a029b85045b68181585d2833e84879b9709143e1f593f0000001836060860151030106612000096108608301527f30644e72e131a029b85045b68181585d2833e84879b9709143e1f593f00000017e6fab49b869ae62001deac878b2667bd31bf3e28e3a2d764aa49b8d9bbdd310820990507f30644e72e131a029b85045b68181585d2833e84879b9709143e1f593f0000001807f30644e72e131a029b85045b68181585d2833e84879b9709143e1f593f0000001836060860151030106612000096108808301527f30644e72e131a029b85045b68181585d2833e84879b9709143e1f593f00000017e6fab49b869ae62001deac878b2667bd31bf3e28e3a2d764aa49b8d9bbdd310820990507f30644e72e131a029b85045b68181585d2833e84879b9709143e1f593f0000001807f30644e72e131a029b85045b68181585d2833e84879b9709143e1f593f0000001836060860151030106612000096108a08301527f30644e72e131a029b85045b68181585d2833e84879b9709143e1f593f00000017e6fab49b869ae62001deac878b2667bd31bf3e28e3a2d764aa49b8d9bbdd310820990507f30644e72e131a029b85045b68181585d2833e84879b9709143e1f593f0000001807f30644e72e131a029b85045b68181585d2833e84879b9709143e1f593f0000001836060860151030106612000096108c08301527f30644e72e131a029b85045b68181585d2833e84879b9709143e1f593f00000017e6fab49b869ae62001deac878b2667bd31bf3e28e3a2d764aa49b8d9bbdd310820990507f30644e72e131a029b85045b68181585d2833e84879b9709143e1f593f0000001807f30644e72e131a029b85045b68181585d2833e84879b9709143e1f593f0000001836060860151030106612000096108e08301527f30644e72e131a029b85045b68181585d2833e84879b9709143e1f593f00000017e6fab49b869ae62001deac878b2667bd31bf3e28e3a2d764aa49b8d9bbdd310820990507f30644e72e131a029b85045b68181585d2833e84879b9709143e1f593f0000001807f30644e72e131a029b85045b68181585d2833e84879b9709143e1f593f0000001836060860151030106612000096109008301527f30644e72e131a029b85045b68181585d2833e84879b9709143e1f593f00000017e6fab49b869ae62001deac878b2667bd31bf3e28e3a2d764aa49b8d9bbdd310820990507f30644e72e131a029b85045b68181585d2833e84879b9709143e1f593f0000001807f30644e72e131a029b85045b68181585d2833e84879b9709143e1f593f0000001836060860151030106612000096109208301527f30644e72e131a029b85045b68181585d2833e84879b9709143e1f593f00000017e6fab49b869ae62001deac878b2667bd31bf3e28e3a2d764aa49b8d9bbdd310820990507f30644e72e131a029b85045b68181585d2833e84879b9709143e1f593f0000001807f30644e72e131a029b85045b68181585d2833e84879b9709143e1f593f0000001836060860151030106612000096109408301527f30644e72e131a029b85045b68181585d2833e84879b9709143e1f593f00000017e6fab49b869ae62001deac878b2667bd31bf3e28e3a2d764aa49b8d9bbdd310820990507f30644e72e131a029b85045b68181585d2833e84879b9709143e1f593f0000001807f30644e72e131a029b85045b68181585d2833e84879b9709143e1f593f0000001836060860151030106612000096109608301527f30644e72e131a029b85045b68181585d2833e84879b9709143e1f593f00000017e6fab49b869ae62001deac878b2667bd31bf3e28e3a2d764aa49b8d9bbdd310820990507f30644e72e131a029b85045b68181585d2833e84879b9709143e1f593f0000001807f30644e72e131a029b85045b68181585d2833e84879b9709143e1f593f0000001836060860151030106612000096109808301527f30644e72e131a029b85045b68181585d2833e84879b9709143e1f593f00000017e6fab49b869ae62001deac878b2667bd31bf3e28e3a2d764aa49b8d9bbdd310820990507f30644e72e131a029b85045b68181585d2833e84879b9709143e1f593f0000001807f30644e72e131a029b85045b68181585d2833e84879b9709143e1f593f0000001836060860151030106612000096109a08301527f30644e72e131a029b85045b68181585d2833e84879b9709143e1f593f00000017e6fab49b869ae62001deac878b2667bd31bf3e28e3a2d764aa49b8d9bbdd310820990507f30644e72e131a029b85045b68181585d2833e84879b9709143e1f593f0000001807f30644e72e131a029b85045b68181585d2833e84879b9709143e1f593f0000001836060860151030106612000096109c08301527f30644e72e131a029b85045b68181585d2833e84879b9709143e1f593f00000017e6fab49b869ae62001deac878b2667bd31bf3e28e3a2d764aa49b8d9bbdd310820990507f30644e72e131a029b85045b68181585d2833e84879b9709143e1f593f0000001807f30644e72e131a029b85045b68181585d2833e84879b9709143e1f593f0000001836060860151030106612000096109e08301527f30644e72e131a029b85045b68181585d2833e84879b9709143e1f593f00000017e6fab49b869ae62001deac878b2667bd31bf3e28e3a2d764aa49b8d9bbdd310820990507f30644e72e131a029b85045b68181585d2833e84879b9709143e1f593f0000001807f30644e72e131a029b85045b68181585d2833e84879b9709143e1f593f000000183606086015103010661200009610a008301527f30644e72e131a029b85045b68181585d2833e84879b9709143e1f593f00000017e6fab49b869ae62001deac878b2667bd31bf3e28e3a2d764aa49b8d9bbdd310820990507f30644e72e131a029b85045b68181585d2833e84879b9709143e1f593f0000001807f30644e72e131a029b85045b68181585d2833e84879b9709143e1f593f000000183606086015103010661200009610a208301527f30644e72e131a029b85045b68181585d2833e84879b9709143e1f593f00000017e6fab49b869ae62001deac878b2667bd31bf3e28e3a2d764aa49b8d9bbdd310820990507f30644e72e131a029b85045b68181585d2833e84879b9709143e1f593f0000001807f30644e72e131a029b85045b68181585d2833e84879b9709143e1f593f000000183606086015103010661200009610a408301527f30644e72e131a029b85045b68181585d2833e84879b9709143e1f593f00000017e6fab49b869ae62001deac878b2667bd31bf3e28e3a2d764aa49b8d9bbdd310820990507f30644e72e131a029b85045b68181585d2833e84879b9709143e1f593f0000001807f30644e72e131a029b85045b68181585d2833e84879b9709143e1f593f000000183606086015103010661200009610a608301527f30644e72e131a029b85045b68181585d2833e84879b9709143e1f593f00000017e6fab49b869ae62001deac878b2667bd31bf3e28e3a2d764aa49b8d9bbdd310820990507f30644e72e131a029b85045b68181585d2833e84879b9709143e1f593f0000001807f30644e72e131a029b85045b68181585d2833e84879b9709143e1f593f000000183606086015103010661200009610a808301527f30644e72e131a029b85045b68181585d2833e84879b9709143e1f593f00000017e6fab49b869ae62001deac878b2667bd31bf3e28e3a2d764aa49b8d9bbdd310820990507f30644e72e131a029b85045b68181585d2833e84879b9709143e1f593f0000001807f30644e72e131a029b85045b68181585d2833e84879b9709143e1f593f000000183606086015103010661200009610aa08301527f30644e72e131a029b85045b68181585d2833e84879b9709143e1f593f00000017e6fab49b869ae62001deac878b2667bd31bf3e28e3a2d764aa49b8d9bbdd310820990507f30644e72e131a029b85045b68181585d2833e84879b9709143e1f593f0000001807f30644e72e131a029b85045b68181585d2833e84879b9709143e1f593f000000183606086015103010661200009610ac08301527f30644e72e131a029b85045b68181585d2833e84879b9709143e1f593f00000017e6fab49b869ae62001deac878b2667bd31bf3e28e3a2d764aa49b8d9bbdd310820990507f30644e72e131a029b85045b68181585d2833e84879b9709143e1f593f0000001807f30644e72e131a029b85045b68181585d2833e84879b9709143e1f593f000000183606086015103010661200009610ae08301527f30644e72e131a029b85045b68181585d2833e84879b9709143e1f593f00000017e6fab49b869ae62001deac878b2667bd31bf3e28e3a2d764aa49b8d9bbdd310820990507f30644e72e131a029b85045b68181585d2833e84879b9709143e1f593f0000001807f30644e72e131a029b85045b68181585d2833e84879b9709143e1f593f000000183606086015103010661200009610b008301527f30644e72e131a029b85045b68181585d2833e84879b9709143e1f593f00000017e6fab49b869ae62001deac878b2667bd31bf3e28e3a2d764aa49b8d9bbdd310820990507f30644e72e131a029b85045b68181585d2833e84879b9709143e1f593f0000001807f30644e72e131a029b85045b68181585d2833e84879b9709143e1f593f000000183606086015103010661200009610b208301527f30644e72e131a029b85045b68181585d2833e84879b9709143e1f593f00000017e6fab49b869ae62001deac878b2667bd31bf3e28e3a2d764aa49b8d9bbdd310820990507f30644e72e131a029b85045b68181585d2833e84879b9709143e1f593f0000001807f30644e72e131a029b85045b68181585d2833e84879b9709143e1f593f000000183606086015103010661200009610b408301527f30644e72e131a029b85045b68181585d2833e84879b9709143e1f593f00000017e6fab49b869ae62001deac878b2667bd31bf3e28e3a2d764aa49b8d9bbdd310820990507f30644e72e131a029b85045b68181585d2833e84879b9709143e1f593f0000001807f30644e72e131a029b85045b68181585d2833e84879b9709143e1f593f000000183606086015103010661200009610b608301527f30644e72e131a029b85045b68181585d2833e84879b9709143e1f593f00000017e6fab49b869ae62001deac878b2667bd31bf3e28e3a2d764aa49b8d9bbdd310820990507f30644e72e131a029b85045b68181585d2833e84879b9709143e1f593f0000001807f30644e72e131a029b85045b68181585d2833e84879b9709143e1f593f000000183606086015103010661200009610b808301527f30644e72e131a029b85045b68181585d2833e84879b9709143e1f593f00000017e6fab49b869ae62001deac878b2667bd31bf3e28e3a2d764aa49b8d9bbdd310820990507f30644e72e131a029b85045b68181585d2833e84879b9709143e1f593f0000001807f30644e72e131a029b85045b68181585d2833e84879b9709143e1f593f000000183606086015103010661200009610ba08301527f30644e72e131a029b85045b68181585d2833e84879b9709143e1f593f00000017e6fab49b869ae62001deac878b2667bd31bf3e28e3a2d764aa49b8d9bbdd310820990507f30644e72e131a029b85045b68181585d2833e84879b9709143e1f593f0000001807f30644e72e131a029b85045b68181585d2833e84879b9709143e1f593f000000183606086015103010661200009610bc08301527f30644e72e131a029b85045b68181585d2833e84879b9709143e1f593f00000017e6fab49b869ae62001deac878b2667bd31bf3e28e3a2d764aa49b8d9bbdd310820990507f30644e72e131a029b85045b68181585d2833e84879b9709143e1f593f0000001807f30644e72e131a029b85045b68181585d2833e84879b9709143e1f593f000000183606086015103010661200009610be08301527f30644e72e131a029b85045b68181585d2833e84879b9709143e1f593f00000017e6fab49b869ae62001deac878b2667bd31bf3e28e3a2d764aa49b8d9bbdd310820990507f30644e72e131a029b85045b68181585d2833e84879b9709143e1f593f0000001807f30644e72e131a029b85045b68181585d2833e84879b9709143e1f593f000000183606086015103010661200009610c008301527f30644e72e131a029b85045b68181585d2833e84879b9709143e1f593f00000017e6fab49b869ae62001deac878b2667bd31bf3e28e3a2d764aa49b8d9bbdd310820990507f30644e72e131a029b85045b68181585d2833e84879b9709143e1f593f0000001807f30644e72e131a029b85045b68181585d2833e84879b9709143e1f593f000000183606086015103010661200009610c208301527f30644e72e131a029b85045b68181585d2833e84879b9709143e1f593f00000017e6fab49b869ae62001deac878b2667bd31bf3e28e3a2d764aa49b8d9bbdd310820990507f30644e72e131a029b85045b68181585d2833e84879b9709143e1f593f0000001807f30644e72e131a029b85045b68181585d2833e84879b9709143e1f593f000000183606086015103010661200009610c408301527f30644e72e131a029b85045b68181585d2833e84879b9709143e1f593f00000017e6fab49b869ae62001deac878b2667bd31bf3e28e3a2d764aa49b8d9bbdd310820990507f30644e72e131a029b85045b68181585d2833e84879b9709143e1f593f0000001807f30644e72e131a029b85045b68181585d2833e84879b9709143e1f593f000000183606086015103010661200009610c608301527f30644e72e131a029b85045b68181585d2833e84879b9709143e1f593f00000017e6fab49b869ae62001deac878b2667bd31bf3e28e3a2d764aa49b8d9bbdd310820990507f30644e72e131a029b85045b68181585d2833e84879b9709143e1f593f0000001807f30644e72e131a029b85045b68181585d2833e84879b9709143e1f593f000000183606086015103010661200009610c808301527f30644e72e131a029b85045b68181585d2833e84879b9709143e1f593f00000017e6fab49b869ae62001deac878b2667bd31bf3e28e3a2d764aa49b8d9bbdd310820990507f30644e72e131a029b85045b68181585d2833e84879b9709143e1f593f0000001807f30644e72e131a029b85045b68181585d2833e84879b9709143e1f593f000000183606086015103010661200009610ca08301527f30644e72e131a029b85045b68181585d2833e84879b9709143e1f593f00000017e6fab49b869ae62001deac878b2667bd31bf3e28e3a2d764aa49b8d9bbdd310820990507f30644e72e131a029b85045b68181585d2833e84879b9709143e1f593f0000001807f30644e72e131a029b85045b68181585d2833e84879b9709143e1f593f000000183606086015103010661200009610cc08301527f30644e72e131a029b85045b68181585d2833e84879b9709143e1f593f00000017e6fab49b869ae62001deac878b2667bd31bf3e28e3a2d764aa49b8d9bbdd310820990507f30644e72e131a029b85045b68181585d2833e84879b9709143e1f593f0000001807f30644e72e131a029b85045b68181585d2833e84879b9709143e1f593f000000183606086015103010661200009610ce08301527f30644e72e131a029b85045b68181585d2833e84879b9709143e1f593f00000017e6fab49b869ae62001deac878b2667bd31bf3e28e3a2d764aa49b8d9bbdd310820990507f30644e72e131a029b85045b68181585d2833e84879b9709143e1f593f0000001807f30644e72e131a029b85045b68181585d2833e84879b9709143e1f593f000000183606086015103010661200009610d008301527f30644e72e131a029b85045b68181585d2833e84879b9709143e1f593f00000017e6fab49b869ae62001deac878b2667bd31bf3e28e3a2d764aa49b8d9bbdd310820990507f30644e72e131a029b85045b68181585d2833e84879b9709143e1f593f0000001807f30644e72e131a029b85045b68181585d2833e84879b9709143e1f593f000000183606086015103010661200009610d208301527f30644e72e131a029b85045b68181585d2833e84879b9709143e1f593f00000017e6fab49b869ae62001deac878b2667bd31bf3e28e3a2d764aa49b8d9bbdd310820990507f30644e72e131a029b85045b68181585d2833e84879b9709143e1f593f0000001807f30644e72e131a029b85045b68181585d2833e84879b9709143e1f593f000000183606086015103010661200009610d40830152613f0e605761028084016100c8565b610260820151600191507f30644e72e131a029b85045b68181585d2833e84879b9709143e1f593f0000001816102a0850151096102a08401527f30644e72e131a029b85045b68181585d2833e84879b9709143e1f593f00000017e6fab49b869ae62001deac878b2667bd31bf3e28e3a2d764aa49b8d9bbdd310830991507f30644e72e131a029b85045b68181585d2833e84879b9709143e1f593f000000180826102c08601510983096102c08401527f30644e72e131a029b85045b68181585d2833e84879b9709143e1f593f00000017e6fab49b869ae62001deac878b2667bd31bf3e28e3a2d764aa49b8d9bbdd310830991507f30644e72e131a029b85045b68181585d2833e84879b9709143e1f593f000000180826102e08601510983096102e08401527f30644e72e131a029b85045b68181585d2833e84879b9709143e1f593f00000017e6fab49b869ae62001deac878b2667bd31bf3e28e3a2d764aa49b8d9bbdd310830991507f30644e72e131a029b85045b68181585d2833e84879b9709143e1f593f000000180826103008601510983096103008401527f30644e72e131a029b85045b68181585d2833e84879b9709143e1f593f00000017e6fab49b869ae62001deac878b2667bd31bf3e28e3a2d764aa49b8d9bbdd310830991507f30644e72e131a029b85045b68181585d2833e84879b9709143e1f593f000000180826103208601510983096103208401527f30644e72e131a029b85045b68181585d2833e84879b9709143e1f593f00000017e6fab49b869ae62001deac878b2667bd31bf3e28e3a2d764aa49b8d9bbdd310830991507f30644e72e131a029b85045b68181585d2833e84879b9709143e1f593f000000180826103408601510983096103408401527f30644e72e131a029b85045b68181585d2833e84879b9709143e1f593f00000017e6fab49b869ae62001deac878b2667bd31bf3e28e3a2d764aa49b8d9bbdd310830991507f30644e72e131a029b85045b68181585d2833e84879b9709143e1f593f000000180826103608601510983096103608401527f30644e72e131a029b85045b68181585d2833e84879b9709143e1f593f00000017e6fab49b869ae62001deac878b2667bd31bf3e28e3a2d764aa49b8d9bbdd310830991507f30644e72e131a029b85045b68181585d2833e84879b9709143e1f593f000000180826103808601510983096103808401527f30644e72e131a029b85045b68181585d2833e84879b9709143e1f593f00000017e6fab49b869ae62001deac878b2667bd31bf3e28e3a2d764aa49b8d9bbdd310830991507f30644e72e131a029b85045b68181585d2833e84879b9709143e1f593f000000180826103a08601510983096103a08401527f30644e72e131a029b85045b68181585d2833e84879b9709143e1f593f00000017e6fab49b869ae62001deac878b2667bd31bf3e28e3a2d764aa49b8d9bbdd310830991507f30644e72e131a029b85045b68181585d2833e84879b9709143e1f593f000000180826103c08601510983096103c08401527f30644e72e131a029b85045b68181585d2833e84879b9709143e1f593f00000017e6fab49b869ae62001deac878b2667bd31bf3e28e3a2d764aa49b8d9bbdd310830991507f30644e72e131a029b85045b68181585d2833e84879b9709143e1f593f000000180826103e08601510983096103e08401527f30644e72e131a029b85045b68181585d2833e84879b9709143e1f593f00000017e6fab49b869ae62001deac878b2667bd31bf3e28e3a2d764aa49b8d9bbdd310830991507f30644e72e131a029b85045b68181585d2833e84879b9709143e1f593f000000180826104008601510983096104008401527f30644e72e131a029b85045b68181585d2833e84879b9709143e1f593f00000017e6fab49b869ae62001deac878b2667bd31bf3e28e3a2d764aa49b8d9bbdd310830991507f30644e72e131a029b85045b68181585d2833e84879b9709143e1f593f000000180826104208601510983096104208401527f30644e72e131a029b85045b68181585d2833e84879b9709143e1f593f00000017e6fab49b869ae62001deac878b2667bd31bf3e28e3a2d764aa49b8d9bbdd310830991507f30644e72e131a029b85045b68181585d2833e84879b9709143e1f593f000000180826104408601510983096104408401527f30644e72e131a029b85045b68181585d2833e84879b9709143e1f593f00000017e6fab49b869ae62001deac878b2667bd31bf3e28e3a2d764aa49b8d9bbdd310830991507f30644e72e131a029b85045b68181585d2833e84879b9709143e1f593f000000180826104608601510983096104608401527f30644e72e131a029b85045b68181585d2833e84879b9709143e1f593f00000017e6fab49b869ae62001deac878b2667bd31bf3e28e3a2d764aa49b8d9bbdd310830991507f30644e72e131a029b85045b68181585d2833e84879b9709143e1f593f000000180826104808601510983096104808401527f30644e72e131a029b85045b68181585d2833e84879b9709143e1f593f00000017e6fab49b869ae62001deac878b2667bd31bf3e28e3a2d764aa49b8d9bbdd310830991507f30644e72e131a029b85045b68181585d2833e84879b9709143e1f593f000000180826104a08601510983096104a08401527f30644e72e131a029b85045b68181585d2833e84879b9709143e1f593f00000017e6fab49b869ae62001deac878b2667bd31bf3e28e3a2d764aa49b8d9bbdd310830991507f30644e72e131a029b85045b68181585d2833e84879b9709143e1f593f000000180826104c08601510983096104c08401527f30644e72e131a029b85045b68181585d2833e84879b9709143e1f593f00000017e6fab49b869ae62001deac878b2667bd31bf3e28e3a2d764aa49b8d9bbdd310830991507f30644e72e131a029b85045b68181585d2833e84879b9709143e1f593f000000180826104e08601510983096104e08401527f30644e72e131a029b85045b68181585d2833e84879b9709143e1f593f00000017e6fab49b869ae62001deac878b2667bd31bf3e28e3a2d764aa49b8d9bbdd310830991507f30644e72e131a029b85045b68181585d2833e84879b9709143e1f593f000000180826105008601510983096105008401527f30644e72e131a029b85045b68181585d2833e84879b9709143e1f593f00000017e6fab49b869ae62001deac878b2667bd31bf3e28e3a2d764aa49b8d9bbdd310830991507f30644e72e131a029b85045b68181585d2833e84879b9709143e1f593f000000180826105208601510983096105208401527f30644e72e131a029b85045b68181585d2833e84879b9709143e1f593f00000017e6fab49b869ae62001deac878b2667bd31bf3e28e3a2d764aa49b8d9bbdd310830991507f30644e72e131a029b85045b68181585d2833e84879b9709143e1f593f000000180826105408601510983096105408401527f30644e72e131a029b85045b68181585d2833e84879b9709143e1f593f00000017e6fab49b869ae62001deac878b2667bd31bf3e28e3a2d764aa49b8d9bbdd310830991507f30644e72e131a029b85045b68181585d2833e84879b9709143e1f593f000000180826105608601510983096105608401527f30644e72e131a029b85045b68181585d2833e84879b9709143e1f593f00000017e6fab49b869ae62001deac878b2667bd31bf3e28e3a2d764aa49b8d9bbdd310830991507f30644e72e131a029b85045b68181585d2833e84879b9709143e1f593f000000180826105808601510983096105808401527f30644e72e131a029b85045b68181585d2833e84879b9709143e1f593f00000017e6fab49b869ae62001deac878b2667bd31bf3e28e3a2d764aa49b8d9bbdd310830991507f30644e72e131a029b85045b68181585d2833e84879b9709143e1f593f000000180826105a08601510983096105a08401527f30644e72e131a029b85045b68181585d2833e84879b9709143e1f593f00000017e6fab49b869ae62001deac878b2667bd31bf3e28e3a2d764aa49b8d9bbdd310830991507f30644e72e131a029b85045b68181585d2833e84879b9709143e1f593f000000180826105c08601510983096105c08401527f30644e72e131a029b85045b68181585d2833e84879b9709143e1f593f00000017e6fab49b869ae62001deac878b2667bd31bf3e28e3a2d764aa49b8d9bbdd310830991507f30644e72e131a029b85045b68181585d2833e84879b9709143e1f593f000000180826105e08601510983096105e08401527f30644e72e131a029b85045b68181585d2833e84879b9709143e1f593f00000017e6fab49b869ae62001deac878b2667bd31bf3e28e3a2d764aa49b8d9bbdd310830991507f30644e72e131a029b85045b68181585d2833e84879b9709143e1f593f000000180826106008601510983096106008401527f30644e72e131a029b85045b68181585d2833e84879b9709143e1f593f00000017e6fab49b869ae62001deac878b2667bd31bf3e28e3a2d764aa49b8d9bbdd310830991507f30644e72e131a029b85045b68181585d2833e84879b9709143e1f593f000000180826106208601510983096106208401527f30644e72e131a029b85045b68181585d2833e84879b9709143e1f593f00000017e6fab49b869ae62001deac878b2667bd31bf3e28e3a2d764aa49b8d9bbdd310830991507f30644e72e131a029b85045b68181585d2833e84879b9709143e1f593f000000180826106408601510983096106408401527f30644e72e131a029b85045b68181585d2833e84879b9709143e1f593f00000017e6fab49b869ae62001deac878b2667bd31bf3e28e3a2d764aa49b8d9bbdd310830991507f30644e72e131a029b85045b68181585d2833e84879b9709143e1f593f000000180826106608601510983096106608401527f30644e72e131a029b85045b68181585d2833e84879b9709143e1f593f00000017e6fab49b869ae62001deac878b2667bd31bf3e28e3a2d764aa49b8d9bbdd310830991507f30644e72e131a029b85045b68181585d2833e84879b9709143e1f593f000000180826106808601510983096106808401527f30644e72e131a029b85045b68181585d2833e84879b9709143e1f593f00000017e6fab49b869ae62001deac878b2667bd31bf3e28e3a2d764aa49b8d9bbdd310830991507f30644e72e131a029b85045b68181585d2833e84879b9709143e1f593f000000180826106a08601510983096106a08401527f30644e72e131a029b85045b68181585d2833e84879b9709143e1f593f00000017e6fab49b869ae62001deac878b2667bd31bf3e28e3a2d764aa49b8d9bbdd310830991507f30644e72e131a029b85045b68181585d2833e84879b9709143e1f593f000000180826106c08601510983096106c08401527f30644e72e131a029b85045b68181585d2833e84879b9709143e1f593f00000017e6fab49b869ae62001deac878b2667bd31bf3e28e3a2d764aa49b8d9bbdd310830991507f30644e72e131a029b85045b68181585d2833e84879b9709143e1f593f000000180826106e08601510983096106e08401527f30644e72e131a029b85045b68181585d2833e84879b9709143e1f593f00000017e6fab49b869ae62001deac878b2667bd31bf3e28e3a2d764aa49b8d9bbdd310830991507f30644e72e131a029b85045b68181585d2833e84879b9709143e1f593f000000180826107008601510983096107008401527f30644e72e131a029b85045b68181585d2833e84879b9709143e1f593f00000017e6fab49b869ae62001deac878b2667bd31bf3e28e3a2d764aa49b8d9bbdd310830991507f30644e72e131a029b85045b68181585d2833e84879b9709143e1f593f000000180826107208601510983096107208401527f30644e72e131a029b85045b68181585d2833e84879b9709143e1f593f00000017e6fab49b869ae62001deac878b2667bd31bf3e28e3a2d764aa49b8d9bbdd310830991507f30644e72e131a029b85045b68181585d2833e84879b9709143e1f593f000000180826107408601510983096107408401527f30644e72e131a029b85045b68181585d2833e84879b9709143e1f593f00000017e6fab49b869ae62001deac878b2667bd31bf3e28e3a2d764aa49b8d9bbdd310830991507f30644e72e131a029b85045b68181585d2833e84879b9709143e1f593f000000180826107608601510983096107608401527f30644e72e131a029b85045b68181585d2833e84879b9709143e1f593f00000017e6fab49b869ae62001deac878b2667bd31bf3e28e3a2d764aa49b8d9bbdd310830991507f30644e72e131a029b85045b68181585d2833e84879b9709143e1f593f000000180826107808601510983096107808401527f30644e72e131a029b85045b68181585d2833e84879b9709143e1f593f00000017e6fab49b869ae62001deac878b2667bd31bf3e28e3a2d764aa49b8d9bbdd310830991507f30644e72e131a029b85045b68181585d2833e84879b9709143e1f593f000000180826107a08601510983096107a08401527f30644e72e131a029b85045b68181585d2833e84879b9709143e1f593f00000017e6fab49b869ae62001deac878b2667bd31bf3e28e3a2d764aa49b8d9bbdd310830991507f30644e72e131a029b85045b68181585d2833e84879b9709143e1f593f000000180826107c08601510983096107c08401527f30644e72e131a029b85045b68181585d2833e84879b9709143e1f593f00000017e6fab49b869ae62001deac878b2667bd31bf3e28e3a2d764aa49b8d9bbdd310830991507f30644e72e131a029b85045b68181585d2833e84879b9709143e1f593f000000180826107e08601510983096107e08401527f30644e72e131a029b85045b68181585d2833e84879b9709143e1f593f00000017e6fab49b869ae62001deac878b2667bd31bf3e28e3a2d764aa49b8d9bbdd310830991507f30644e72e131a029b85045b68181585d2833e84879b9709143e1f593f000000180826108008601510983096108008401527f30644e72e131a029b85045b68181585d2833e84879b9709143e1f593f00000017e6fab49b869ae62001deac878b2667bd31bf3e28e3a2d764aa49b8d9bbdd310830991507f30644e72e131a029b85045b68181585d2833e84879b9709143e1f593f000000180826108208601510983096108208401527f30644e72e131a029b85045b68181585d2833e84879b9709143e1f593f00000017e6fab49b869ae62001deac878b2667bd31bf3e28e3a2d764aa49b8d9bbdd310830991507f30644e72e131a029b85045b68181585d2833e84879b9709143e1f593f000000180826108408601510983096108408401527f30644e72e131a029b85045b68181585d2833e84879b9709143e1f593f00000017e6fab49b869ae62001deac878b2667bd31bf3e28e3a2d764aa49b8d9bbdd310830991507f30644e72e131a029b85045b68181585d2833e84879b9709143e1f593f000000180826108608601510983096108608401527f30644e72e131a029b85045b68181585d2833e84879b9709143e1f593f00000017e6fab49b869ae62001deac878b2667bd31bf3e28e3a2d764aa49b8d9bbdd310830991507f30644e72e131a029b85045b68181585d2833e84879b9709143e1f593f000000180826108808601510983096108808401527f30644e72e131a029b85045b68181585d2833e84879b9709143e1f593f00000017e6fab49b869ae62001deac878b2667bd31bf3e28e3a2d764aa49b8d9bbdd310830991507f30644e72e131a029b85045b68181585d2833e84879b9709143e1f593f000000180826108a08601510983096108a08401527f30644e72e131a029b85045b68181585d2833e84879b9709143e1f593f00000017e6fab49b869ae62001deac878b2667bd31bf3e28e3a2d764aa49b8d9bbdd310830991507f30644e72e131a029b85045b68181585d2833e84879b9709143e1f593f000000180826108c08601510983096108c08401527f30644e72e131a029b85045b68181585d2833e84879b9709143e1f593f00000017e6fab49b869ae62001deac878b2667bd31bf3e28e3a2d764aa49b8d9bbdd310830991507f30644e72e131a029b85045b68181585d2833e84879b9709143e1f593f000000180826108e08601510983096108e08401527f30644e72e131a029b85045b68181585d2833e84879b9709143e1f593f00000017e6fab49b869ae62001deac878b2667bd31bf3e28e3a2d764aa49b8d9bbdd310830991507f30644e72e131a029b85045b68181585d2833e84879b9709143e1f593f000000180826109008601510983096109008401527f30644e72e131a029b85045b68181585d2833e84879b9709143e1f593f00000017e6fab49b869ae62001deac878b2667bd31bf3e28e3a2d764aa49b8d9bbdd310830991507f30644e72e131a029b85045b68181585d2833e84879b9709143e1f593f000000180826109208601510983096109208401527f30644e72e131a029b85045b68181585d2833e84879b9709143e1f593f00000017e6fab49b869ae62001deac878b2667bd31bf3e28e3a2d764aa49b8d9bbdd310830991507f30644e72e131a029b85045b68181585d2833e84879b9709143e1f593f000000180826109408601510983096109408401527f30644e72e131a029b85045b68181585d2833e84879b9709143e1f593f00000017e6fab49b869ae62001deac878b2667bd31bf3e28e3a2d764aa49b8d9bbdd310830991507f30644e72e131a029b85045b68181585d2833e84879b9709143e1f593f000000180826109608601510983096109608401527f30644e72e131a029b85045b68181585d2833e84879b9709143e1f593f00000017e6fab49b869ae62001deac878b2667bd31bf3e28e3a2d764aa49b8d9bbdd310830991507f30644e72e131a029b85045b68181585d2833e84879b9709143e1f593f000000180826109808601510983096109808401527f30644e72e131a029b85045b68181585d2833e84879b9709143e1f593f00000017e6fab49b869ae62001deac878b2667bd31bf3e28e3a2d764aa49b8d9bbdd310830991507f30644e72e131a029b85045b68181585d2833e84879b9709143e1f593f000000180826109a08601510983096109a08401527f30644e72e131a029b85045b68181585d2833e84879b9709143e1f593f00000017e6fab49b869ae62001deac878b2667bd31bf3e28e3a2d764aa49b8d9bbdd310830991507f30644e72e131a029b85045b68181585d2833e84879b9709143e1f593f000000180826109c08601510983096109c08401527f30644e72e131a029b85045b68181585d2833e84879b9709143e1f593f00000017e6fab49b869ae62001deac878b2667bd31bf3e28e3a2d764aa49b8d9bbdd310830991507f30644e72e131a029b85045b68181585d2833e84879b9709143e1f593f000000180826109e08601510983096109e08401527f30644e72e131a029b85045b68181585d2833e84879b9709143e1f593f00000017e6fab49b869ae62001deac878b2667bd31bf3e28e3a2d764aa49b8d9bbdd310830991507f30644e72e131a029b85045b68181585d2833e84879b9709143e1f593f00000018082610a00860151098309610a008401527f30644e72e131a029b85045b68181585d2833e84879b9709143e1f593f00000017e6fab49b869ae62001deac878b2667bd31bf3e28e3a2d764aa49b8d9bbdd310830991507f30644e72e131a029b85045b68181585d2833e84879b9709143e1f593f00000018082610a20860151098309610a208401527f30644e72e131a029b85045b68181585d2833e84879b9709143e1f593f00000017e6fab49b869ae62001deac878b2667bd31bf3e28e3a2d764aa49b8d9bbdd310830991507f30644e72e131a029b85045b68181585d2833e84879b9709143e1f593f00000018082610a40860151098309610a408401527f30644e72e131a029b85045b68181585d2833e84879b9709143e1f593f00000017e6fab49b869ae62001deac878b2667bd31bf3e28e3a2d764aa49b8d9bbdd310830991507f30644e72e131a029b85045b68181585d2833e84879b9709143e1f593f00000018082610a60860151098309610a608401527f30644e72e131a029b85045b68181585d2833e84879b9709143e1f593f00000017e6fab49b869ae62001deac878b2667bd31bf3e28e3a2d764aa49b8d9bbdd310830991507f30644e72e131a029b85045b68181585d2833e84879b9709143e1f593f00000018082610a80860151098309610a808401527f30644e72e131a029b85045b68181585d2833e84879b9709143e1f593f00000017e6fab49b869ae62001deac878b2667bd31bf3e28e3a2d764aa49b8d9bbdd310830991507f30644e72e131a029b85045b68181585d2833e84879b9709143e1f593f00000018082610aa0860151098309610aa08401527f30644e72e131a029b85045b68181585d2833e84879b9709143e1f593f00000017e6fab49b869ae62001deac878b2667bd31bf3e28e3a2d764aa49b8d9bbdd310830991507f30644e72e131a029b85045b68181585d2833e84879b9709143e1f593f00000018082610ac0860151098309610ac08401527f30644e72e131a029b85045b68181585d2833e84879b9709143e1f593f00000017e6fab49b869ae62001deac878b2667bd31bf3e28e3a2d764aa49b8d9bbdd310830991507f30644e72e131a029b85045b68181585d2833e84879b9709143e1f593f00000018082610ae0860151098309610ae08401527f30644e72e131a029b85045b68181585d2833e84879b9709143e1f593f00000017e6fab49b869ae62001deac878b2667bd31bf3e28e3a2d764aa49b8d9bbdd310830991507f30644e72e131a029b85045b68181585d2833e84879b9709143e1f593f00000018082610b00860151098309610b008401527f30644e72e131a029b85045b68181585d2833e84879b9709143e1f593f00000017e6fab49b869ae62001deac878b2667bd31bf3e28e3a2d764aa49b8d9bbdd310830991507f30644e72e131a029b85045b68181585d2833e84879b9709143e1f593f00000018082610b20860151098309610b208401527f30644e72e131a029b85045b68181585d2833e84879b9709143e1f593f00000017e6fab49b869ae62001deac878b2667bd31bf3e28e3a2d764aa49b8d9bbdd310830991507f30644e72e131a029b85045b68181585d2833e84879b9709143e1f593f00000018082610b40860151098309610b408401527f30644e72e131a029b85045b68181585d2833e84879b9709143e1f593f00000017e6fab49b869ae62001deac878b2667bd31bf3e28e3a2d764aa49b8d9bbdd310830991507f30644e72e131a029b85045b68181585d2833e84879b9709143e1f593f00000018082610b60860151098309610b608401527f30644e72e131a029b85045b68181585d2833e84879b9709143e1f593f00000017e6fab49b869ae62001deac878b2667bd31bf3e28e3a2d764aa49b8d9bbdd310830991507f30644e72e131a029b85045b68181585d2833e84879b9709143e1f593f00000018082610b80860151098309610b808401527f30644e72e131a029b85045b68181585d2833e84879b9709143e1f593f00000017e6fab49b869ae62001deac878b2667bd31bf3e28e3a2d764aa49b8d9bbdd310830991507f30644e72e131a029b85045b68181585d2833e84879b9709143e1f593f00000018082610ba0860151098309610ba08401527f30644e72e131a029b85045b68181585d2833e84879b9709143e1f593f00000017e6fab49b869ae62001deac878b2667bd31bf3e28e3a2d764aa49b8d9bbdd310830991507f30644e72e131a029b85045b68181585d2833e84879b9709143e1f593f00000018082610bc0860151098309610bc08401527f30644e72e131a029b85045b68181585d2833e84879b9709143e1f593f00000017e6fab49b869ae62001deac878b2667bd31bf3e28e3a2d764aa49b8d9bbdd310830991507f30644e72e131a029b85045b68181585d2833e84879b9709143e1f593f00000018082610be0860151098309610be08401527f30644e72e131a029b85045b68181585d2833e84879b9709143e1f593f00000017e6fab49b869ae62001deac878b2667bd31bf3e28e3a2d764aa49b8d9bbdd310830991507f30644e72e131a029b85045b68181585d2833e84879b9709143e1f593f00000018082610c00860151098309610c008401527f30644e72e131a029b85045b68181585d2833e84879b9709143e1f593f00000017e6fab49b869ae62001deac878b2667bd31bf3e28e3a2d764aa49b8d9bbdd310830991507f30644e72e131a029b85045b68181585d2833e84879b9709143e1f593f00000018082610c20860151098309610c208401527f30644e72e131a029b85045b68181585d2833e84879b9709143e1f593f00000017e6fab49b869ae62001deac878b2667bd31bf3e28e3a2d764aa49b8d9bbdd310830991507f30644e72e131a029b85045b68181585d2833e84879b9709143e1f593f00000018082610c40860151098309610c408401527f30644e72e131a029b85045b68181585d2833e84879b9709143e1f593f00000017e6fab49b869ae62001deac878b2667bd31bf3e28e3a2d764aa49b8d9bbdd310830991507f30644e72e131a029b85045b68181585d2833e84879b9709143e1f593f00000018082610c60860151098309610c608401527f30644e72e131a029b85045b68181585d2833e84879b9709143e1f593f00000017e6fab49b869ae62001deac878b2667bd31bf3e28e3a2d764aa49b8d9bbdd310830991507f30644e72e131a029b85045b68181585d2833e84879b9709143e1f593f00000018082610c80860151098309610c808401527f30644e72e131a029b85045b68181585d2833e84879b9709143e1f593f00000017e6fab49b869ae62001deac878b2667bd31bf3e28e3a2d764aa49b8d9bbdd310830991507f30644e72e131a029b85045b68181585d2833e84879b9709143e1f593f00000018082610ca0860151098309610ca08401527f30644e72e131a029b85045b68181585d2833e84879b9709143e1f593f00000017e6fab49b869ae62001deac878b2667bd31bf3e28e3a2d764aa49b8d9bbdd310830991507f30644e72e131a029b85045b68181585d2833e84879b9709143e1f593f00000018082610cc0860151098309610cc08401527f30644e72e131a029b85045b68181585d2833e84879b9709143e1f593f00000017e6fab49b869ae62001deac878b2667bd31bf3e28e3a2d764aa49b8d9bbdd310830991507f30644e72e131a029b85045b68181585d2833e84879b9709143e1f593f00000018082610ce0860151098309610ce08401527f30644e72e131a029b85045b68181585d2833e84879b9709143e1f593f00000017e6fab49b869ae62001deac878b2667bd31bf3e28e3a2d764aa49b8d9bbdd310830991507f30644e72e131a029b85045b68181585d2833e84879b9709143e1f593f00000018082610d00860151098309610d008401527f30644e72e131a029b85045b68181585d2833e84879b9709143e1f593f00000017e6fab49b869ae62001deac878b2667bd31bf3e28e3a2d764aa49b8d9bbdd310830991507f30644e72e131a029b85045b68181585d2833e84879b9709143e1f593f00000018082610d20860151098309610d208401527f30644e72e131a029b85045b68181585d2833e84879b9709143e1f593f00000017e6fab49b869ae62001deac878b2667bd31bf3e28e3a2d764aa49b8d9bbdd310830991507f30644e72e131a029b85045b68181585d2833e84879b9709143e1f593f00000018082610d40860151098309610d40840152505050565b60007f30644e72e131a029b85045b68181585d2833e84879b9709143e1f593f0000001807f30644e72e131a029b85045b68181585d2833e84879b9709143e1f593f000000160208601516102a0860151098303010690507f30644e72e131a029b85045b68181585d2833e84879b9709143e1f593f0000001807f30644e72e131a029b85045b68181585d2833e84879b9709143e1f593f000000160408601516102c0860151098303010690507f30644e72e131a029b85045b68181585d2833e84879b9709143e1f593f0000001807f30644e72e131a029b85045b68181585d2833e84879b9709143e1f593f000000160608601516102e0860151098303010690507f30644e72e131a029b85045b68181585d2833e84879b9709143e1f593f0000001807f30644e72e131a029b85045b68181585d2833e84879b9709143e1f593f00000016080860151610300860151098303010690507f30644e72e131a029b85045b68181585d2833e84879b9709143e1f593f0000001807f30644e72e131a029b85045b68181585d2833e84879b9709143e1f593f000000160a0860151610320860151098303010690507f30644e72e131a029b85045b68181585d2833e84879b9709143e1f593f0000001807f30644e72e131a029b85045b68181585d2833e84879b9709143e1f593f000000160c0860151610340860151098303010690507f30644e72e131a029b85045b68181585d2833e84879b9709143e1f593f0000001807f30644e72e131a029b85045b68181585d2833e84879b9709143e1f593f000000160e0860151610360860151098303010690507f30644e72e131a029b85045b68181585d2833e84879b9709143e1f593f0000001807f30644e72e131a029b85045b68181585d2833e84879b9709143e1f593f0000001610100860151610380860151098303010690507f30644e72e131a029b85045b68181585d2833e84879b9709143e1f593f0000001807f30644e72e131a029b85045b68181585d2833e84879b9709143e1f593f00000016101208601516103a0860151098303010690507f30644e72e131a029b85045b68181585d2833e84879b9709143e1f593f0000001807f30644e72e131a029b85045b68181585d2833e84879b9709143e1f593f00000016101408601516103c0860151098303010690507f30644e72e131a029b85045b68181585d2833e84879b9709143e1f593f0000001807f30644e72e131a029b85045b68181585d2833e84879b9709143e1f593f00000016101608601516103e0860151098303010690507f30644e72e131a029b85045b68181585d2833e84879b9709143e1f593f0000001807f30644e72e131a029b85045b68181585d2833e84879b9709143e1f593f0000001610180860151610400860151098303010690507f30644e72e131a029b85045b68181585d2833e84879b9709143e1f593f0000001807f30644e72e131a029b85045b68181585d2833e84879b9709143e1f593f00000016101a0860151610420860151098303010690507f30644e72e131a029b85045b68181585d2833e84879b9709143e1f593f0000001807f30644e72e131a029b85045b68181585d2833e84879b9709143e1f593f00000016101c0860151610440860151098303010690507f30644e72e131a029b85045b68181585d2833e84879b9709143e1f593f0000001807f30644e72e131a029b85045b68181585d2833e84879b9709143e1f593f00000016101e0860151610460860151098303010690507f30644e72e131a029b85045b68181585d2833e84879b9709143e1f593f0000001807f30644e72e131a029b85045b68181585d2833e84879b9709143e1f593f0000001610200860151610480860151098303010690507f30644e72e131a029b85045b68181585d2833e84879b9709143e1f593f0000001807f30644e72e131a029b85045b68181585d2833e84879b9709143e1f593f00000016102208601516104a0860151098303010690507f30644e72e131a029b85045b68181585d2833e84879b9709143e1f593f0000001807f30644e72e131a029b85045b68181585d2833e84879b9709143e1f593f00000016102408601516104c0860151098303010690507f30644e72e131a029b85045b68181585d2833e84879b9709143e1f593f0000001807f30644e72e131a029b85045b68181585d2833e84879b9709143e1f593f00000016102608601516104e0860151098303010690507f30644e72e131a029b85045b68181585d2833e84879b9709143e1f593f0000001807f30644e72e131a029b85045b68181585d2833e84879b9709143e1f593f0000001610280860151610500860151098303010690507f30644e72e131a029b85045b68181585d2833e84879b9709143e1f593f0000001807f30644e72e131a029b85045b68181585d2833e84879b9709143e1f593f00000016102a0860151610520860151098303010690507f30644e72e131a029b85045b68181585d2833e84879b9709143e1f593f0000001807f30644e72e131a029b85045b68181585d2833e84879b9709143e1f593f00000016102c0860151610540860151098303010690507f30644e72e131a029b85045b68181585d2833e84879b9709143e1f593f0000001807f30644e72e131a029b85045b68181585d2833e84879b9709143e1f593f00000016102e0860151610560860151098303010690507f30644e72e131a029b85045b68181585d2833e84879b9709143e1f593f0000001807f30644e72e131a029b85045b68181585d2833e84879b9709143e1f593f0000001610300860151610580860151098303010690507f30644e72e131a029b85045b68181585d2833e84879b9709143e1f593f0000001807f30644e72e131a029b85045b68181585d2833e84879b9709143e1f593f00000016103208601516105a0860151098303010690507f30644e72e131a029b85045b68181585d2833e84879b9709143e1f593f0000001807f30644e72e131a029b85045b68181585d2833e84879b9709143e1f593f00000016103408601516105c0860151098303010690507f30644e72e131a029b85045b68181585d2833e84879b9709143e1f593f0000001807f30644e72e131a029b85045b68181585d2833e84879b9709143e1f593f00000016103608601516105e0860151098303010690507f30644e72e131a029b85045b68181585d2833e84879b9709143e1f593f0000001807f30644e72e131a029b85045b68181585d2833e84879b9709143e1f593f0000001610380860151610600860151098303010690507f30644e72e131a029b85045b68181585d2833e84879b9709143e1f593f0000001807f30644e72e131a029b85045b68181585d2833e84879b9709143e1f593f00000016103a0860151610620860151098303010690507f30644e72e131a029b85045b68181585d2833e84879b9709143e1f593f0000001807f30644e72e131a029b85045b68181585d2833e84879b9709143e1f593f00000016103c0860151610640860151098303010690507f30644e72e131a029b85045b68181585d2833e84879b9709143e1f593f0000001807f30644e72e131a029b85045b68181585d2833e84879b9709143e1f593f00000016103e0860151610660860151098303010690507f30644e72e131a029b85045b68181585d2833e84879b9709143e1f593f0000001807f30644e72e131a029b85045b68181585d2833e84879b9709143e1f593f0000001610400860151610680860151098303010690507f30644e72e131a029b85045b68181585d2833e84879b9709143e1f593f0000001807f30644e72e131a029b85045b68181585d2833e84879b9709143e1f593f00000016104208601516106a0860151098303010690507f30644e72e131a029b85045b68181585d2833e84879b9709143e1f593f0000001807f30644e72e131a029b85045b68181585d2833e84879b9709143e1f593f00000016104408601516106c0860151098303010690507f30644e72e131a029b85045b68181585d2833e84879b9709143e1f593f0000001807f30644e72e131a029b85045b68181585d2833e84879b9709143e1f593f00000016104608601516106e0860151098303010690507f30644e72e131a029b85045b68181585d2833e84879b9709143e1f593f0000001807f30644e72e131a029b85045b68181585d2833e84879b9709143e1f593f0000001610480860151610700860151098303010690507f30644e72e131a029b85045b68181585d2833e84879b9709143e1f593f0000001807f30644e72e131a029b85045b68181585d2833e84879b9709143e1f593f00000016104a0860151610720860151098303010690507f30644e72e131a029b85045b68181585d2833e84879b9709143e1f593f0000001807f30644e72e131a029b85045b68181585d2833e84879b9709143e1f593f00000016104c0860151610740860151098303010690507f30644e72e131a029b85045b68181585d2833e84879b9709143e1f593f0000001807f30644e72e131a029b85045b68181585d2833e84879b9709143e1f593f00000016104e0860151610760860151098303010690507f30644e72e131a029b85045b68181585d2833e84879b9709143e1f593f0000001807f30644e72e131a029b85045b68181585d2833e84879b9709143e1f593f0000001610500860151610780860151098303010690507f30644e72e131a029b85045b68181585d2833e84879b9709143e1f593f0000001807f30644e72e131a029b85045b68181585d2833e84879b9709143e1f593f00000016105208601516107a0860151098303010690507f30644e72e131a029b85045b68181585d2833e84879b9709143e1f593f0000001807f30644e72e131a029b85045b68181585d2833e84879b9709143e1f593f00000016105408601516107c0860151098303010690507f30644e72e131a029b85045b68181585d2833e84879b9709143e1f593f0000001807f30644e72e131a029b85045b68181585d2833e84879b9709143e1f593f00000016105608601516107e0860151098303010690507f30644e72e131a029b85045b68181585d2833e84879b9709143e1f593f0000001807f30644e72e131a029b85045b68181585d2833e84879b9709143e1f593f0000001610580860151610800860151098303010690507f30644e72e131a029b85045b68181585d2833e84879b9709143e1f593f0000001807f30644e72e131a029b85045b68181585d2833e84879b9709143e1f593f00000016105a0860151610820860151098303010690507f30644e72e131a029b85045b68181585d2833e84879b9709143e1f593f0000001807f30644e72e131a029b85045b68181585d2833e84879b9709143e1f593f00000016105c0860151610840860151098303010690507f30644e72e131a029b85045b68181585d2833e84879b9709143e1f593f0000001807f30644e72e131a029b85045b68181585d2833e84879b9709143e1f593f00000016105e0860151610860860151098303010690507f30644e72e131a029b85045b68181585d2833e84879b9709143e1f593f0000001807f30644e72e131a029b85045b68181585d2833e84879b9709143e1f593f0000001610600860151610880860151098303010690507f30644e72e131a029b85045b68181585d2833e84879b9709143e1f593f0000001807f30644e72e131a029b85045b68181585d2833e84879b9709143e1f593f00000016106208601516108a0860151098303010690507f30644e72e131a029b85045b68181585d2833e84879b9709143e1f593f0000001807f30644e72e131a029b85045b68181585d2833e84879b9709143e1f593f00000016106408601516108c0860151098303010690507f30644e72e131a029b85045b68181585d2833e84879b9709143e1f593f0000001807f30644e72e131a029b85045b68181585d2833e84879b9709143e1f593f00000016106608601516108e0860151098303010690507f30644e72e131a029b85045b68181585d2833e84879b9709143e1f593f0000001807f30644e72e131a029b85045b68181585d2833e84879b9709143e1f593f0000001610680860151610900860151098303010690507f30644e72e131a029b85045b68181585d2833e84879b9709143e1f593f0000001807f30644e72e131a029b85045b68181585d2833e84879b9709143e1f593f00000016106a0860151610920860151098303010690507f30644e72e131a029b85045b68181585d2833e84879b9709143e1f593f0000001807f30644e72e131a029b85045b68181585d2833e84879b9709143e1f593f00000016106c0860151610940860151098303010690507f30644e72e131a029b85045b68181585d2833e84879b9709143e1f593f0000001807f30644e72e131a029b85045b68181585d2833e84879b9709143e1f593f00000016106e0860151610960860151098303010690507f30644e72e131a029b85045b68181585d2833e84879b9709143e1f593f0000001807f30644e72e131a029b85045b68181585d2833e84879b9709143e1f593f0000001610700860151610980860151098303010690507f30644e72e131a029b85045b68181585d2833e84879b9709143e1f593f0000001807f30644e72e131a029b85045b68181585d2833e84879b9709143e1f593f00000016107208601516109a0860151098303010690507f30644e72e131a029b85045b68181585d2833e84879b9709143e1f593f0000001807f30644e72e131a029b85045b68181585d2833e84879b9709143e1f593f00000016107408601516109c0860151098303010690507f30644e72e131a029b85045b68181585d2833e84879b9709143e1f593f0000001807f30644e72e131a029b85045b68181585d2833e84879b9709143e1f593f00000016107608601516109e0860151098303010690507f30644e72e131a029b85045b68181585d2833e84879b9709143e1f593f0000001807f30644e72e131a029b85045b68181585d2833e84879b9709143e1f593f0000001610780860151610a00860151098303010690507f30644e72e131a029b85045b68181585d2833e84879b9709143e1f593f0000001807f30644e72e131a029b85045b68181585d2833e84879b9709143e1f593f00000016107a0860151610a20860151098303010690507f30644e72e131a029b85045b68181585d2833e84879b9709143e1f593f0000001807f30644e72e131a029b85045b68181585d2833e84879b9709143e1f593f00000016107c0860151610a40860151098303010690507f30644e72e131a029b85045b68181585d2833e84879b9709143e1f593f0000001807f30644e72e131a029b85045b68181585d2833e84879b9709143e1f593f00000016107e0860151610a60860151098303010690507f30644e72e131a029b85045b68181585d2833e84879b9709143e1f593f0000001807f30644e72e131a029b85045b68181585d2833e84879b9709143e1f593f0000001610800860151610a80860151098303010690507f30644e72e131a029b85045b68181585d2833e84879b9709143e1f593f0000001807f30644e72e131a029b85045b68181585d2833e84879b9709143e1f593f0000001610820860151610aa0860151098303010690507f30644e72e131a029b85045b68181585d2833e84879b9709143e1f593f0000001807f30644e72e131a029b85045b68181585d2833e84879b9709143e1f593f0000001610840860151610ac0860151098303010690507f30644e72e131a029b85045b68181585d2833e84879b9709143e1f593f0000001807f30644e72e131a029b85045b68181585d2833e84879b9709143e1f593f0000001610860860151610ae0860151098303010690507f30644e72e131a029b85045b68181585d2833e84879b9709143e1f593f0000001807f30644e72e131a029b85045b68181585d2833e84879b9709143e1f593f0000001610880860151610b00860151098303010690507f30644e72e131a029b85045b68181585d2833e84879b9709143e1f593f0000001807f30644e72e131a029b85045b68181585d2833e84879b9709143e1f593f00000016108a0860151610b20860151098303010690507f30644e72e131a029b85045b68181585d2833e84879b9709143e1f593f0000001807f30644e72e131a029b85045b68181585d2833e84879b9709143e1f593f00000016108c0860151610b40860151098303010690507f30644e72e131a029b85045b68181585d2833e84879b9709143e1f593f0000001807f30644e72e131a029b85045b68181585d2833e84879b9709143e1f593f00000016108e0860151610b60860151098303010690507f30644e72e131a029b85045b68181585d2833e84879b9709143e1f593f0000001807f30644e72e131a029b85045b68181585d2833e84879b9709143e1f593f0000001610900860151610b80860151098303010690507f30644e72e131a029b85045b68181585d2833e84879b9709143e1f593f0000001807f30644e72e131a029b85045b68181585d2833e84879b9709143e1f593f0000001610920860151610ba0860151098303010690507f30644e72e131a029b85045b68181585d2833e84879b9709143e1f593f0000001807f30644e72e131a029b85045b68181585d2833e84879b9709143e1f593f0000001610940860151610bc0860151098303010690507f30644e72e131a029b85045b68181585d2833e84879b9709143e1f593f0000001807f30644e72e131a029b85045b68181585d2833e84879b9709143e1f593f0000001610960860151610be0860151098303010690507f30644e72e131a029b85045b68181585d2833e84879b9709143e1f593f0000001807f30644e72e131a029b85045b68181585d2833e84879b9709143e1f593f0000001610980860151610c00860151098303010690507f30644e72e131a029b85045b68181585d2833e84879b9709143e1f593f0000001807f30644e72e131a029b85045b68181585d2833e84879b9709143e1f593f00000016109a0860151610c20860151098303010690507f30644e72e131a029b85045b68181585d2833e84879b9709143e1f593f0000001807f30644e72e131a029b85045b68181585d2833e84879b9709143e1f593f00000016109c0860151610c40860151098303010690507f30644e72e131a029b85045b68181585d2833e84879b9709143e1f593f0000001807f30644e72e131a029b85045b68181585d2833e84879b9709143e1f593f00000016109e0860151610c60860151098303010690507f30644e72e131a029b85045b68181585d2833e84879b9709143e1f593f0000001807f30644e72e131a029b85045b68181585d2833e84879b9709143e1f593f0000001610a00860151610c80860151098303010690507f30644e72e131a029b85045b68181585d2833e84879b9709143e1f593f0000001807f30644e72e131a029b85045b68181585d2833e84879b9709143e1f593f0000001610a20860151610ca0860151098303010690507f30644e72e131a029b85045b68181585d2833e84879b9709143e1f593f0000001807f30644e72e131a029b85045b68181585d2833e84879b9709143e1f593f0000001610a40860151610cc0860151098303010690507f30644e72e131a029b85045b68181585d2833e84879b9709143e1f593f0000001807f30644e72e131a029b85045b68181585d2833e84879b9709143e1f593f0000001610a60860151610ce0860151098303010690507f30644e72e131a029b85045b68181585d2833e84879b9709143e1f593f0000001807f30644e72e131a029b85045b68181585d2833e84879b9709143e1f593f0000001610a80860151610d00860151098303010690507f30644e72e131a029b85045b68181585d2833e84879b9709143e1f593f0000001807f30644e72e131a029b85045b68181585d2833e84879b9709143e1f593f0000001610aa0860151610d20860151098303010690507f30644e72e131a029b85045b68181585d2833e84879b9709143e1f593f0000001807f30644e72e131a029b85045b68181585d2833e84879b9709143e1f593f0000001610ac0860151610d4086015109830301069050806101a0830152505050565b60008060007f30644e72e131a029b85045b68181585d2833e84879b9709143e1f593f00000016101a08601516103208601510892507f30644e72e131a029b85045b68181585d2833e84879b9709143e1f593f000000160208601516102c08601510991507f30644e72e131a029b85045b68181585d2833e84879b9709143e1f593f0000001610260850151830891507f30644e72e131a029b85045b68181585d2833e84879b9709143e1f593f00000016040860151830891507f30644e72e131a029b85045b68181585d2833e84879b9709143e1f593f000000160208601516102e08601510990507f30644e72e131a029b85045b68181585d2833e84879b9709143e1f593f0000001610280850151820890507f30644e72e131a029b85045b68181585d2833e84879b9709143e1f593f00000016040860151820890507f30644e72e131a029b85045b68181585d2833e84879b9709143e1f593f000000181830991507f30644e72e131a029b85045b68181585d2833e84879b9709143e1f593f000000160408601516102a08601510890507f30644e72e131a029b85045b68181585d2833e84879b9709143e1f593f000000181830991507f30644e72e131a029b85045b68181585d2833e84879b9709143e1f593f0000001610300850151830991507f30644e72e131a029b85045b68181585d2833e84879b9709143e1f593f00000016000860151830991507f30644e72e131a029b85045b68181585d2833e84879b9709143e1f593f000000160008601516102a08701510990507f30644e72e131a029b85045b68181585d2833e84879b9709143e1f593f00000016000860151820990507f30644e72e131a029b85045b68181585d2833e84879b9709143e1f593f000000181830891507f30644e72e131a029b85045b68181585d2833e84879b9709143e1f593f0000001827f30644e72e131a029b85045b68181585d2833e84879b9709143e1f593f00000018501030692507f30644e72e131a029b85045b68181585d2833e84879b9709143e1f593f000000161028086015184099250826101c08601525050505050565b81518152602082015160208201525050565b6040518151815260208201516020820152825160408201526020830151606082015260408260808360066107d05a03fa80618719576000805260206000f35b50505050565b6000604051835181526020840151602082015284604082015260408160608360076107d05a03fa915081618757576000805260206000f35b825160408201526020830151606082015260408360808360066107d05a03fa915081618787576000805260206000f35b5050505050565b600060405183815284602082015285604082015260408160608360076107d05a03fa9150816187c1576000805260206000f35b825160408201526020830151606082015260408360808360066107d05a03fa9150816187f1576000805260206000f35b505050505050565b600060405183815284602082015285604082015260408360608360076107d05a03fa91508161882c576000805260206000f35b505050505050565b6101e082016188476101e08301826186c8565b61885b61018084015161022084018361871f565b505050565b60008061022084017f30644e72e131a029b85045b68181585d2833e84879b9709143e1f593f000000160c08601516102608601510992506188e3837f2c8b1a21280c2c8cb95fcef77224dfc849bb627ba8ad2fa639637a81ccc85db27f2af128a19d99288898d6e4d50833ca5ce72c49fc8490fba0c697c29cd287b23c846187f9565b7f30644e72e131a029b85045b68181585d2833e84879b9709143e1f593f000000161028085015184099250618959837f12035d3a6e18f1be17cd52b4ac2bb9fc29dc74b99fae5440db17731e57e3b6cb7e12991e3a26c788fdc43ab8273be1b619d3b2030404b5f0c15daceb641c627e8461878e565b7f30644e72e131a029b85045b68181585d2833e84879b9709143e1f593f000000160c08601516102808601510992506189d4837f03c90222ad439fd1a0f4ec686457728c9f3519b89db3fe84bf9dc364d78c9fcd7f248d9fad638c43fcb3b584cf45ad36ad20e77689661acbbea9ac7cdb221151688461878e565b7f30644e72e131a029b85045b68181585d2833e84879b9709143e1f593f000000160c08601516102a0860151099250618a4f837f27e5d6fe2bc7265578bc612fc4bf19be381635eedb24eeb567b2f9e20c63fc207f216d0d8eb03043536624e0a563d7f1b29439744d5ac9bb90d800474c20ea82158461878e565b60c08501519250618aa2837f201cde5fcda021564097f53f2990aa25f5528cebd32e0fe6d2fbe3cada8ddeb67f2b14ae9658c0d95361a5ae44ce7494180c44cff70066451a93ccb8028450bcaf8461878e565b7f30644e72e131a029b85045b68181585d2833e84879b9709143e1f593f000000160a08601516102608601510892507f30644e72e131a029b85045b68181585d2833e84879b9709143e1f593f00000016040860151840892507f30644e72e131a029b85045b68181585d2833e84879b9709143e1f593f000000160a086015160020991507f30644e72e131a029b85045b68181585d2833e84879b9709143e1f593f0000001610280850151830891507f30644e72e131a029b85045b68181585d2833e84879b9709143e1f593f00000016040860151830891507f30644e72e131a029b85045b68181585d2833e84879b9709143e1f593f000000182840992507f30644e72e131a029b85045b68181585d2833e84879b9709143e1f593f000000160a086015160030991507f30644e72e131a029b85045b68181585d2833e84879b9709143e1f593f00000016102a0850151830891507f30644e72e131a029b85045b68181585d2833e84879b9709143e1f593f00000016040860151830891507f30644e72e131a029b85045b68181585d2833e84879b9709143e1f593f000000182840992507f30644e72e131a029b85045b68181585d2833e84879b9709143e1f593f00000016000860151840992507f30644e72e131a029b85045b68181585d2833e84879b9709143e1f593f000000160c0860151840992507f30644e72e131a029b85045b68181585d2833e84879b9709143e1f593f000000160008601516102a08701510991507f30644e72e131a029b85045b68181585d2833e84879b9709143e1f593f00000016000860151830991507f30644e72e131a029b85045b68181585d2833e84879b9709143e1f593f000000160c0860151830991507f30644e72e131a029b85045b68181585d2833e84879b9709143e1f593f000000182840892507f30644e72e131a029b85045b68181585d2833e84879b9709143e1f593f000000161018086015184089250618d7d8360e086018361871f565b7f30644e72e131a029b85045b68181585d2833e84879b9709143e1f593f00000016102c085015160208701510992507f30644e72e131a029b85045b68181585d2833e84879b9709143e1f593f0000001610260850151840892507f30644e72e131a029b85045b68181585d2833e84879b9709143e1f593f00000016040860151840892507f30644e72e131a029b85045b68181585d2833e84879b9709143e1f593f00000016102e085015160208701510991507f30644e72e131a029b85045b68181585d2833e84879b9709143e1f593f0000001610280850151830891507f30644e72e131a029b85045b68181585d2833e84879b9709143e1f593f00000016040860151830891507f30644e72e131a029b85045b68181585d2833e84879b9709143e1f593f000000182840992507f30644e72e131a029b85045b68181585d2833e84879b9709143e1f593f00000016000860151840992507f30644e72e131a029b85045b68181585d2833e84879b9709143e1f593f000000160c0860151840992507f30644e72e131a029b85045b68181585d2833e84879b9709143e1f593f00000016020860151840992507f30644e72e131a029b85045b68181585d2833e84879b9709143e1f593f0000001610300850151840992507f30644e72e131a029b85045b68181585d2833e84879b9709143e1f593f0000001837f30644e72e131a029b85045b68181585d2833e84879b9709143e1f593f000000103069250618fe7837f0235461948eeba57b9fffce9e63250aada0aff50631a0e1dfe54f9e0df7dd4c67f25873ec8e4057ffb50b11005f942e4364e6049affb70fd5ba83754040d8011378461878e565b618ff56101208501826186da565b6080850151925061900b8361016086018361871f565b7f30644e72e131a029b85045b68181585d2833e84879b9709143e1f593f00000018384099250619040836101a086018361871f565b61905260e0860151602086018361871f565b619065610100860151606086018361871f565b61907861012086015160a086018361871f565b6190c96101408601517f2a8afd96428b91d8f720ce36c8a68646c8cbe637998855e10d63ad2f6ca122ab7f06d6d1d31639a49c5367ad8fa8a7d4240fe164182d75b4c83ab4495d5c621ae78461878e565b61911a6101608601517f0ba7837572920045752a59552a54f96ac3a5803d4e935a85ce50a165ccb9e1707f017a69c58ad1f9b1023c78f8641b5ea4a2c8d42d2bfd99a20006743477e19cdc8461878e565b6101c085015192507f30644e72e131a029b85045b68181585d2833e84879b9709143e1f593f00000018060c087015161032087015109840892507f30644e72e131a029b85045b68181585d2833e84879b9709143e1f593f00000018060e087015161026087015109840892507f30644e72e131a029b85045b68181585d2833e84879b9709143e1f593f00000018061010087015161028087015109840892507f30644e72e131a029b85045b68181585d2833e84879b9709143e1f593f0000001806101208701516102a087015109840892507f30644e72e131a029b85045b68181585d2833e84879b9709143e1f593f0000001806101408701516102c087015109840892507f30644e72e131a029b85045b68181585d2833e84879b9709143e1f593f0000001806101608701516102e087015109840892507f30644e72e131a029b85045b68181585d2833e84879b9709143e1f593f00000018061018087015161030087015109840892507f30644e72e131a029b85045b68181585d2833e84879b9709143e1f593f0000001837f30644e72e131a029b85045b68181585d2833e84879b9709143e1f593f0000001030692506192da83600260018461878e565b606085015192506192f0836101e086018361871f565b7f30644e72e131a029b85045b68181585d2833e84879b9709143e1f593f000000160608601516101808701510992507f30644e72e131a029b85045b68181585d2833e84879b9709143e1f593f00000017e6fab49b869ae62001deac878b2667bd31bf3e28e3a2d764aa49b8d9bbdd310840992506193738361022086018361871f565b5050505050565b60006040516101e0830151815260206101e08401015160208201527f26186a2d65ee4d2f9c9a5b91f86597d35f192cd120caf7e935d8443d1938e23d60408201527f30441fd1b5d3370482c42152a8899027716989a6996c2535bc9f7fee8aaef79e60608201527f1970ea81dd6992adfbc571effb03503adbbb6a857f578403c6c40e22d65b3c0260808201527f054793348f12c0cf5622c340573cb277586319de359ab9389778f689786b1e4860a082015261022083015160c08201526020610220840101517f30644e72e131a029b85045b68181585d97816a916871ca8d3c208c16d87cfd47817f30644e72e131a029b85045b68181585d97816a916871ca8d3c208c16d87cfd47030690508060e08301527f198e9393920d483a7260bfb731fb5d25f1aa493335a9e71297e485b7aef312c26101008301527f1800deef121f1e76426a00665e5c4479674322d4f75edadd46debd5cd992f6ed6101208301527f090689d0585ff075ec9e99ad690c3395bc4b313370b38ef355acdadcd122975b6101408301527f12c85ea5db8c6deb4aab71808dcb408fe3d1e7690c43d37b4ce6cc0166fa7daa6101608301526020826101808460086107d05a03fa825181169350505050919050565b604051610d60810160405261955b84610206565b61956683828661027f565b61956f81610b30565b61957983826166cf565b61958381856183ba565b61958d8185618834565b6195978185618860565b6195a08161937a565b610d6082036040528060005260206000f35b60006195c56195c084619780565b61975b565b905080838252602082019050828560208602820111156195e457600080fd5b60005b8581101561961457816195fa88826196b0565b8452602084019350602083019250506001810190506195e7565b5050509392505050565b600061963161962c846197ac565b61975b565b90508281526020810184848401111561964957600080fd5b6196548482856197f3565b509392505050565b600082601f83011261966d57600080fd5b813561967d8482602086016195b2565b91505092915050565b600082601f83011261969757600080fd5b81356196a784826020860161961e565b91505092915050565b6000813590506196bf81619873565b92915050565b600080604083850312156196d857600080fd5b600083013567ffffffffffffffff8111156196f257600080fd5b6196fe85828601619686565b925050602083013567ffffffffffffffff81111561971b57600080fd5b6197278582860161965c565b9150509250929050565b61973a816197dd565b82525050565b60006020820190506197556000830184619731565b92915050565b6000619765619776565b90506197718282619802565b919050565b6000604051905090565b600067ffffffffffffffff82111561979b5761979a619833565b5b602082029050602081019050919050565b600067ffffffffffffffff8211156197c7576197c6619833565b5b6197d082619862565b9050602081019050919050565b60008115159050919050565b6000819050919050565b82818337600083830152505050565b61980b82619862565b810181811067ffffffffffffffff8211171561982a57619829619833565b5b80604052505050565b7f4e487b7100000000000000000000000000000000000000000000000000000000600052604160045260246000fd5b6000601f19601f8301169050919050565b61987c816197e9565b811461988757600080fd5b5056fea2646970667358221220b510a3fa02055f242427118a52c0df4b340fd143b69b77800ca73658888aaabf64736f6c63430008040033",
  "linkReferences": {},
  "deployedLinkReferences": {}
}